{
  "_format": "hh-sol-artifact-1",
  "contractName": "Funds",
  "sourceName": "contracts/Funds.sol",
  "abi": [
    {
      "inputs": [],
      "stateMutability": "payable",
      "type": "constructor"
    },
    {
      "inputs": [
        {
          "internalType": "address",
          "name": "_contributorAddress",
          "type": "address"
        },
        {
          "internalType": "address",
          "name": "_projectAddress",
          "type": "address"
        }
      ],
      "name": "contribute",
      "outputs": [],
      "stateMutability": "payable",
      "type": "function"
    },
    {
      "inputs": [
        {
          "internalType": "address",
          "name": "_projectAddress",
          "type": "address"
        }
      ],
      "name": "getBalance",
      "outputs": [
        {
          "internalType": "uint256",
          "name": "",
          "type": "uint256"
        }
      ],
      "stateMutability": "view",
      "type": "function"
    },
    {
      "inputs": [
        {
          "internalType": "address",
          "name": "_contributorAddress",
          "type": "address"
        },
        {
          "internalType": "address",
          "name": "_projectAddress",
          "type": "address"
        }
      ],
      "name": "getContributionInfo",
      "outputs": [
        {
          "internalType": "uint256",
          "name": "",
          "type": "uint256"
        }
      ],
      "stateMutability": "view",
      "type": "function"
    },
    {
      "inputs": [
        {
          "internalType": "address",
          "name": "_contributorAddress",
          "type": "address"
        },
        {
          "internalType": "address",
          "name": "_projectAddress",
          "type": "address"
        }
      ],
      "name": "refund",
      "outputs": [],
      "stateMutability": "nonpayable",
      "type": "function"
    },
    {
      "inputs": [
        {
          "internalType": "address",
          "name": "_projectAddress",
          "type": "address"
        },
        {
          "internalType": "address",
          "name": "_owner",
          "type": "address"
        },
        {
          "internalType": "uint256",
          "name": "_target",
          "type": "uint256"
        },
        {
          "internalType": "uint256",
          "name": "_releaseTime",
          "type": "uint256"
        },
        {
          "internalType": "uint256",
          "name": "_votes",
          "type": "uint256"
        },
        {
          "internalType": "uint256",
          "name": "_numberOfInvestors",
          "type": "uint256"
        }
      ],
      "name": "release",
      "outputs": [],
      "stateMutability": "nonpayable",
      "type": "function"
    },
    {
      "inputs": [
        {
          "internalType": "address",
          "name": "_projectContractAddress",
          "type": "address"
        }
      ],
      "name": "setProjectContractAddress",
      "outputs": [],
      "stateMutability": "nonpayable",
      "type": "function"
    },
    {
      "stateMutability": "payable",
      "type": "receive"
    }
  ],
  "bytecode": "0x60a060405260008060006101000a81548173ffffffffffffffffffffffffffffffffffffffff021916908373ffffffffffffffffffffffffffffffffffffffff1602179055503373ffffffffffffffffffffffffffffffffffffffff1660808173ffffffffffffffffffffffffffffffffffffffff1681525050600160038190555060805161113161009c60003960006108cb01526111316000f3fe6080604052600436106100595760003560e01c806307db37e7146100655780631a1c9af4146100815780635e30b8a6146100aa578063ced1a214146100d3578063ebe618ff146100fc578063f8b2cb4f1461013957610060565b3661006057005b600080fd5b61007f600480360381019061007a9190610beb565b610176565b005b34801561008d57600080fd5b506100a860048036038101906100a39190610c61565b6102f1565b005b3480156100b657600080fd5b506100d160048036038101906100cc9190610beb565b610598565b005b3480156100df57600080fd5b506100fa60048036038101906100f59190610cee565b6108c9565b005b34801561010857600080fd5b50610123600480360381019061011e9190610beb565b61099a565b6040516101309190610d2a565b60405180910390f35b34801561014557600080fd5b50610160600480360381019061015b9190610cee565b610ab0565b60405161016d9190610d2a565b60405180910390f35b60008054906101000a900473ffffffffffffffffffffffffffffffffffffffff1673ffffffffffffffffffffffffffffffffffffffff163373ffffffffffffffffffffffffffffffffffffffff1614610204576040517f08c379a00000000000000000000000000000000000000000000000000000000081526004016101fb90610da2565b60405180910390fd5b34600160008373ffffffffffffffffffffffffffffffffffffffff1673ffffffffffffffffffffffffffffffffffffffff16815260200190815260200160002060008282546102539190610df1565b9250508190555034600260008473ffffffffffffffffffffffffffffffffffffffff1673ffffffffffffffffffffffffffffffffffffffff16815260200190815260200160002060008373ffffffffffffffffffffffffffffffffffffffff1673ffffffffffffffffffffffffffffffffffffffff16815260200190815260200160002060008282546102e69190610df1565b925050819055505050565b60008054906101000a900473ffffffffffffffffffffffffffffffffffffffff1673ffffffffffffffffffffffffffffffffffffffff163373ffffffffffffffffffffffffffffffffffffffff161461037f576040517f08c379a000000000000000000000000000000000000000000000000000000000815260040161037690610da2565b60405180910390fd5b824210156103c2576040517f08c379a00000000000000000000000000000000000000000000000000000000081526004016103b990610e97565b60405180910390fd5b83600160008873ffffffffffffffffffffffffffffffffffffffff1673ffffffffffffffffffffffffffffffffffffffff168152602001908152602001600020541015610444576040517f08c379a000000000000000000000000000000000000000000000000000000000815260040161043b90610f03565b60405180910390fd5b6002816104519190610f52565b8211610492576040517f08c379a000000000000000000000000000000000000000000000000000000000815260040161048990610fcf565b60405180910390fd5b60008573ffffffffffffffffffffffffffffffffffffffff166108fc600160008a73ffffffffffffffffffffffffffffffffffffffff1673ffffffffffffffffffffffffffffffffffffffff168152602001908152602001600020549081150290604051600060405180830381858888f1935050505090508061054a576040517f08c379a00000000000000000000000000000000000000000000000000000000081526004016105419061103b565b60405180910390fd5b6000600160008973ffffffffffffffffffffffffffffffffffffffff1673ffffffffffffffffffffffffffffffffffffffff1681526020019081526020016000208190555050505050505050565b60008054906101000a900473ffffffffffffffffffffffffffffffffffffffff1673ffffffffffffffffffffffffffffffffffffffff163373ffffffffffffffffffffffffffffffffffffffff1614610626576040517f08c379a000000000000000000000000000000000000000000000000000000000815260040161061d90610da2565b60405180910390fd5b60026003540361066b576040517f08c379a0000000000000000000000000000000000000000000000000000000008152600401610662906110a7565b60405180910390fd5b600260038190555060008273ffffffffffffffffffffffffffffffffffffffff166108fc600260008673ffffffffffffffffffffffffffffffffffffffff1673ffffffffffffffffffffffffffffffffffffffff16815260200190815260200160002060008573ffffffffffffffffffffffffffffffffffffffff1673ffffffffffffffffffffffffffffffffffffffff168152602001908152602001600020549081150290604051600060405180830381858888f19350505050905080610768576040517f08c379a000000000000000000000000000000000000000000000000000000000815260040161075f9061103b565b60405180910390fd5b6000600260008573ffffffffffffffffffffffffffffffffffffffff1673ffffffffffffffffffffffffffffffffffffffff16815260200190815260200160002060008473ffffffffffffffffffffffffffffffffffffffff1673ffffffffffffffffffffffffffffffffffffffff16815260200190815260200160002081905550600260008473ffffffffffffffffffffffffffffffffffffffff1673ffffffffffffffffffffffffffffffffffffffff16815260200190815260200160002060008373ffffffffffffffffffffffffffffffffffffffff1673ffffffffffffffffffffffffffffffffffffffff16815260200190815260200160002054600160008473ffffffffffffffffffffffffffffffffffffffff1673ffffffffffffffffffffffffffffffffffffffff16815260200190815260200160002060008282546108b591906110c7565b925050819055506001600381905550505050565b7f000000000000000000000000000000000000000000000000000000000000000073ffffffffffffffffffffffffffffffffffffffff163373ffffffffffffffffffffffffffffffffffffffff1614610957576040517f08c379a000000000000000000000000000000000000000000000000000000000815260040161094e90610da2565b60405180910390fd5b806000806101000a81548173ffffffffffffffffffffffffffffffffffffffff021916908373ffffffffffffffffffffffffffffffffffffffff16021790555050565b60008060009054906101000a900473ffffffffffffffffffffffffffffffffffffffff1673ffffffffffffffffffffffffffffffffffffffff163373ffffffffffffffffffffffffffffffffffffffff1614610a2b576040517f08c379a0000000000000000000000000000000000000000000000000000000008152600401610a2290610da2565b60405180910390fd5b600260008473ffffffffffffffffffffffffffffffffffffffff1673ffffffffffffffffffffffffffffffffffffffff16815260200190815260200160002060008373ffffffffffffffffffffffffffffffffffffffff1673ffffffffffffffffffffffffffffffffffffffff16815260200190815260200160002054905092915050565b60008060009054906101000a900473ffffffffffffffffffffffffffffffffffffffff1673ffffffffffffffffffffffffffffffffffffffff163373ffffffffffffffffffffffffffffffffffffffff1614610b41576040517f08c379a0000000000000000000000000000000000000000000000000000000008152600401610b3890610da2565b60405180910390fd5b600160008373ffffffffffffffffffffffffffffffffffffffff1673ffffffffffffffffffffffffffffffffffffffff168152602001908152602001600020549050919050565b600080fd5b600073ffffffffffffffffffffffffffffffffffffffff82169050919050565b6000610bb882610b8d565b9050919050565b610bc881610bad565b8114610bd357600080fd5b50565b600081359050610be581610bbf565b92915050565b60008060408385031215610c0257610c01610b88565b5b6000610c1085828601610bd6565b9250506020610c2185828601610bd6565b9150509250929050565b6000819050919050565b610c3e81610c2b565b8114610c4957600080fd5b50565b600081359050610c5b81610c35565b92915050565b60008060008060008060c08789031215610c7e57610c7d610b88565b5b6000610c8c89828a01610bd6565b9650506020610c9d89828a01610bd6565b9550506040610cae89828a01610c4c565b9450506060610cbf89828a01610c4c565b9350506080610cd089828a01610c4c565b92505060a0610ce189828a01610c4c565b9150509295509295509295565b600060208284031215610d0457610d03610b88565b5b6000610d1284828501610bd6565b91505092915050565b610d2481610c2b565b82525050565b6000602082019050610d3f6000830184610d1b565b92915050565b600082825260208201905092915050565b7f4143434553532044454e49454400000000000000000000000000000000000000600082015250565b6000610d8c600d83610d45565b9150610d9782610d56565b602082019050919050565b60006020820190508181036000830152610dbb81610d7f565b9050919050565b7f4e487b7100000000000000000000000000000000000000000000000000000000600052601160045260246000fd5b6000610dfc82610c2b565b9150610e0783610c2b565b9250828201905080821115610e1f57610e1e610dc2565b5b92915050565b7f556e61626c6520746f2072656c656173652066756e64732e204c6f636b2d696e60008201527f20706572696f64206e6f74206f76657200000000000000000000000000000000602082015250565b6000610e81603083610d45565b9150610e8c82610e25565b604082019050919050565b60006020820190508181036000830152610eb081610e74565b9050919050565b7f546172676574206e6f7420726561636865642079657400000000000000000000600082015250565b6000610eed601683610d45565b9150610ef882610eb7565b602082019050919050565b60006020820190508181036000830152610f1c81610ee0565b9050919050565b7f4e487b7100000000000000000000000000000000000000000000000000000000600052601260045260246000fd5b6000610f5d82610c2b565b9150610f6883610c2b565b925082610f7857610f77610f23565b5b828204905092915050565b7f4e6f7420656e6f75676820766f74657300000000000000000000000000000000600082015250565b6000610fb9601083610d45565b9150610fc482610f83565b602082019050919050565b60006020820190508181036000830152610fe881610fac565b9050919050565b7f5472616e73616374696f6e206661696c65640000000000000000000000000000600082015250565b6000611025601283610d45565b915061103082610fef565b602082019050919050565b6000602082019050818103600083015261105481611018565b9050919050565b7f52652d656e746572616e742063616c6c2e20594f552046524155442021210000600082015250565b6000611091601e83610d45565b915061109c8261105b565b602082019050919050565b600060208201905081810360008301526110c081611084565b9050919050565b60006110d282610c2b565b91506110dd83610c2b565b92508282039050818111156110f5576110f4610dc2565b5b9291505056fea26469706673582212200f3933183b07987983af599319138c8d0e2b92288e3d2b32269093e49bb0001f64736f6c63430008110033",
  "linkReferences": {},
  "deployedLinkReferences": {}
}