{
  "_format": "hh-sol-artifact-1",
  "contractName": "Funds",
  "sourceName": "contracts/Funds.sol",
  "abi": [
    {
      "inputs": [],
      "stateMutability": "payable",
      "type": "constructor"
    },
    {
      "inputs": [
        {
          "internalType": "address",
          "name": "_contributorAddress",
          "type": "address"
        },
        {
          "internalType": "address",
          "name": "_projectAddress",
          "type": "address"
        }
      ],
      "name": "contribute",
      "outputs": [],
      "stateMutability": "payable",
      "type": "function"
    },
    {
      "inputs": [
        {
          "internalType": "address",
          "name": "_projectAddress",
          "type": "address"
        }
      ],
      "name": "getBalance",
      "outputs": [
        {
          "internalType": "uint256",
          "name": "",
          "type": "uint256"
        }
      ],
      "stateMutability": "view",
      "type": "function"
    },
    {
      "inputs": [
        {
          "internalType": "address",
          "name": "_contributorAddress",
          "type": "address"
        },
        {
          "internalType": "address",
          "name": "_projectAddress",
          "type": "address"
        }
      ],
      "name": "getContributionInfo",
      "outputs": [
        {
          "internalType": "uint256",
          "name": "",
          "type": "uint256"
        }
      ],
      "stateMutability": "view",
      "type": "function"
    },
    {
      "inputs": [
        {
          "internalType": "address",
          "name": "_contributorAddress",
          "type": "address"
        },
        {
          "internalType": "address",
          "name": "_projectAddress",
          "type": "address"
        }
      ],
      "name": "hasContributed",
      "outputs": [
        {
          "internalType": "bool",
          "name": "",
          "type": "bool"
        }
      ],
      "stateMutability": "view",
      "type": "function"
    },
    {
      "inputs": [
        {
          "internalType": "address",
          "name": "_contributorAddress",
          "type": "address"
        },
        {
          "internalType": "address",
          "name": "_projectAddress",
          "type": "address"
        }
      ],
      "name": "refund",
      "outputs": [],
      "stateMutability": "nonpayable",
      "type": "function"
    },
    {
      "inputs": [
        {
          "internalType": "address",
          "name": "_projectAddress",
          "type": "address"
        },
        {
          "internalType": "address",
          "name": "_owner",
          "type": "address"
        },
        {
          "internalType": "uint256",
          "name": "_target",
          "type": "uint256"
        },
        {
          "internalType": "uint256",
          "name": "_releaseTime",
          "type": "uint256"
        },
        {
          "internalType": "uint256",
          "name": "_votes",
          "type": "uint256"
        },
        {
          "internalType": "uint256",
          "name": "_numberOfInvestors",
          "type": "uint256"
        }
      ],
      "name": "release",
      "outputs": [],
      "stateMutability": "nonpayable",
      "type": "function"
    },
    {
      "inputs": [
        {
          "internalType": "address",
          "name": "_projectContractAddress",
          "type": "address"
        }
      ],
      "name": "setProjectContractAddress",
      "outputs": [],
      "stateMutability": "nonpayable",
      "type": "function"
    },
    {
      "stateMutability": "payable",
      "type": "receive"
    }
  ],
  "bytecode": "0x60a060405260008060006101000a81548173ffffffffffffffffffffffffffffffffffffffff021916908373ffffffffffffffffffffffffffffffffffffffff1602179055503373ffffffffffffffffffffffffffffffffffffffff1660808173ffffffffffffffffffffffffffffffffffffffff168152505060016003819055506080516112e961009c6000396000610a4d01526112e96000f3fe6080604052600436106100745760003560e01c8063bb2061b21161004e578063bb2061b2146100ee578063ced1a2141461012b578063ebe618ff14610154578063f8b2cb4f146101915761007b565b806307db37e7146100805780631a1c9af41461009c5780635e30b8a6146100c55761007b565b3661007b57005b600080fd5b61009a60048036038101906100959190610d6d565b6101ce565b005b3480156100a857600080fd5b506100c360048036038101906100be9190610de3565b610349565b005b3480156100d157600080fd5b506100ec60048036038101906100e79190610d6d565b6105f0565b005b3480156100fa57600080fd5b5061011560048036038101906101109190610d6d565b610921565b6040516101229190610e8b565b60405180910390f35b34801561013757600080fd5b50610152600480360381019061014d9190610ea6565b610a4b565b005b34801561016057600080fd5b5061017b60048036038101906101769190610d6d565b610b1c565b6040516101889190610ee2565b60405180910390f35b34801561019d57600080fd5b506101b860048036038101906101b39190610ea6565b610c32565b6040516101c59190610ee2565b60405180910390f35b60008054906101000a900473ffffffffffffffffffffffffffffffffffffffff1673ffffffffffffffffffffffffffffffffffffffff163373ffffffffffffffffffffffffffffffffffffffff161461025c576040517f08c379a000000000000000000000000000000000000000000000000000000000815260040161025390610f5a565b60405180910390fd5b34600160008373ffffffffffffffffffffffffffffffffffffffff1673ffffffffffffffffffffffffffffffffffffffff16815260200190815260200160002060008282546102ab9190610fa9565b9250508190555034600260008473ffffffffffffffffffffffffffffffffffffffff1673ffffffffffffffffffffffffffffffffffffffff16815260200190815260200160002060008373ffffffffffffffffffffffffffffffffffffffff1673ffffffffffffffffffffffffffffffffffffffff168152602001908152602001600020600082825461033e9190610fa9565b925050819055505050565b60008054906101000a900473ffffffffffffffffffffffffffffffffffffffff1673ffffffffffffffffffffffffffffffffffffffff163373ffffffffffffffffffffffffffffffffffffffff16146103d7576040517f08c379a00000000000000000000000000000000000000000000000000000000081526004016103ce90610f5a565b60405180910390fd5b8242101561041a576040517f08c379a00000000000000000000000000000000000000000000000000000000081526004016104119061104f565b60405180910390fd5b83600160008873ffffffffffffffffffffffffffffffffffffffff1673ffffffffffffffffffffffffffffffffffffffff16815260200190815260200160002054101561049c576040517f08c379a0000000000000000000000000000000000000000000000000000000008152600401610493906110bb565b60405180910390fd5b6002816104a9919061110a565b82116104ea576040517f08c379a00000000000000000000000000000000000000000000000000000000081526004016104e190611187565b60405180910390fd5b60008573ffffffffffffffffffffffffffffffffffffffff166108fc600160008a73ffffffffffffffffffffffffffffffffffffffff1673ffffffffffffffffffffffffffffffffffffffff168152602001908152602001600020549081150290604051600060405180830381858888f193505050509050806105a2576040517f08c379a0000000000000000000000000000000000000000000000000000000008152600401610599906111f3565b60405180910390fd5b6000600160008973ffffffffffffffffffffffffffffffffffffffff1673ffffffffffffffffffffffffffffffffffffffff1681526020019081526020016000208190555050505050505050565b60008054906101000a900473ffffffffffffffffffffffffffffffffffffffff1673ffffffffffffffffffffffffffffffffffffffff163373ffffffffffffffffffffffffffffffffffffffff161461067e576040517f08c379a000000000000000000000000000000000000000000000000000000000815260040161067590610f5a565b60405180910390fd5b6002600354036106c3576040517f08c379a00000000000000000000000000000000000000000000000000000000081526004016106ba9061125f565b60405180910390fd5b600260038190555060008273ffffffffffffffffffffffffffffffffffffffff166108fc600260008673ffffffffffffffffffffffffffffffffffffffff1673ffffffffffffffffffffffffffffffffffffffff16815260200190815260200160002060008573ffffffffffffffffffffffffffffffffffffffff1673ffffffffffffffffffffffffffffffffffffffff168152602001908152602001600020549081150290604051600060405180830381858888f193505050509050806107c0576040517f08c379a00000000000000000000000000000000000000000000000000000000081526004016107b7906111f3565b60405180910390fd5b6000600260008573ffffffffffffffffffffffffffffffffffffffff1673ffffffffffffffffffffffffffffffffffffffff16815260200190815260200160002060008473ffffffffffffffffffffffffffffffffffffffff1673ffffffffffffffffffffffffffffffffffffffff16815260200190815260200160002081905550600260008473ffffffffffffffffffffffffffffffffffffffff1673ffffffffffffffffffffffffffffffffffffffff16815260200190815260200160002060008373ffffffffffffffffffffffffffffffffffffffff1673ffffffffffffffffffffffffffffffffffffffff16815260200190815260200160002054600160008473ffffffffffffffffffffffffffffffffffffffff1673ffffffffffffffffffffffffffffffffffffffff168152602001908152602001600020600082825461090d919061127f565b925050819055506001600381905550505050565b60008060009054906101000a900473ffffffffffffffffffffffffffffffffffffffff1673ffffffffffffffffffffffffffffffffffffffff163373ffffffffffffffffffffffffffffffffffffffff16146109b2576040517f08c379a00000000000000000000000000000000000000000000000000000000081526004016109a990610f5a565b60405180910390fd5b6000600260008573ffffffffffffffffffffffffffffffffffffffff1673ffffffffffffffffffffffffffffffffffffffff16815260200190815260200160002060008473ffffffffffffffffffffffffffffffffffffffff1673ffffffffffffffffffffffffffffffffffffffff168152602001908152602001600020541115610a405760019050610a45565b600090505b92915050565b7f000000000000000000000000000000000000000000000000000000000000000073ffffffffffffffffffffffffffffffffffffffff163373ffffffffffffffffffffffffffffffffffffffff1614610ad9576040517f08c379a0000000000000000000000000000000000000000000000000000000008152600401610ad090610f5a565b60405180910390fd5b806000806101000a81548173ffffffffffffffffffffffffffffffffffffffff021916908373ffffffffffffffffffffffffffffffffffffffff16021790555050565b60008060009054906101000a900473ffffffffffffffffffffffffffffffffffffffff1673ffffffffffffffffffffffffffffffffffffffff163373ffffffffffffffffffffffffffffffffffffffff1614610bad576040517f08c379a0000000000000000000000000000000000000000000000000000000008152600401610ba490610f5a565b60405180910390fd5b600260008473ffffffffffffffffffffffffffffffffffffffff1673ffffffffffffffffffffffffffffffffffffffff16815260200190815260200160002060008373ffffffffffffffffffffffffffffffffffffffff1673ffffffffffffffffffffffffffffffffffffffff16815260200190815260200160002054905092915050565b60008060009054906101000a900473ffffffffffffffffffffffffffffffffffffffff1673ffffffffffffffffffffffffffffffffffffffff163373ffffffffffffffffffffffffffffffffffffffff1614610cc3576040517f08c379a0000000000000000000000000000000000000000000000000000000008152600401610cba90610f5a565b60405180910390fd5b600160008373ffffffffffffffffffffffffffffffffffffffff1673ffffffffffffffffffffffffffffffffffffffff168152602001908152602001600020549050919050565b600080fd5b600073ffffffffffffffffffffffffffffffffffffffff82169050919050565b6000610d3a82610d0f565b9050919050565b610d4a81610d2f565b8114610d5557600080fd5b50565b600081359050610d6781610d41565b92915050565b60008060408385031215610d8457610d83610d0a565b5b6000610d9285828601610d58565b9250506020610da385828601610d58565b9150509250929050565b6000819050919050565b610dc081610dad565b8114610dcb57600080fd5b50565b600081359050610ddd81610db7565b92915050565b60008060008060008060c08789031215610e0057610dff610d0a565b5b6000610e0e89828a01610d58565b9650506020610e1f89828a01610d58565b9550506040610e3089828a01610dce565b9450506060610e4189828a01610dce565b9350506080610e5289828a01610dce565b92505060a0610e6389828a01610dce565b9150509295509295509295565b60008115159050919050565b610e8581610e70565b82525050565b6000602082019050610ea06000830184610e7c565b92915050565b600060208284031215610ebc57610ebb610d0a565b5b6000610eca84828501610d58565b91505092915050565b610edc81610dad565b82525050565b6000602082019050610ef76000830184610ed3565b92915050565b600082825260208201905092915050565b7f4143434553532044454e49454400000000000000000000000000000000000000600082015250565b6000610f44600d83610efd565b9150610f4f82610f0e565b602082019050919050565b60006020820190508181036000830152610f7381610f37565b9050919050565b7f4e487b7100000000000000000000000000000000000000000000000000000000600052601160045260246000fd5b6000610fb482610dad565b9150610fbf83610dad565b9250828201905080821115610fd757610fd6610f7a565b5b92915050565b7f556e61626c6520746f2072656c656173652066756e64732e204c6f636b2d696e60008201527f20706572696f64206e6f74206f76657200000000000000000000000000000000602082015250565b6000611039603083610efd565b915061104482610fdd565b604082019050919050565b600060208201905081810360008301526110688161102c565b9050919050565b7f546172676574206e6f7420726561636865642079657400000000000000000000600082015250565b60006110a5601683610efd565b91506110b08261106f565b602082019050919050565b600060208201905081810360008301526110d481611098565b9050919050565b7f4e487b7100000000000000000000000000000000000000000000000000000000600052601260045260246000fd5b600061111582610dad565b915061112083610dad565b9250826111305761112f6110db565b5b828204905092915050565b7f4e6f7420656e6f75676820766f74657300000000000000000000000000000000600082015250565b6000611171601083610efd565b915061117c8261113b565b602082019050919050565b600060208201905081810360008301526111a081611164565b9050919050565b7f5472616e73616374696f6e206661696c65640000000000000000000000000000600082015250565b60006111dd601283610efd565b91506111e8826111a7565b602082019050919050565b6000602082019050818103600083015261120c816111d0565b9050919050565b7f52652d656e746572616e742063616c6c2e20594f552046524155442021210000600082015250565b6000611249601e83610efd565b915061125482611213565b602082019050919050565b600060208201905081810360008301526112788161123c565b9050919050565b600061128a82610dad565b915061129583610dad565b92508282039050818111156112ad576112ac610f7a565b5b9291505056fea2646970667358221220d92796c8722b0beb1f44097d6612f8962de00f9ed22e153951ec6fcd1879a66a64736f6c63430008110033",
  "linkReferences": {},
  "deployedLinkReferences": {}
}