{
  "_format": "hh-sol-artifact-1",
  "contractName": "Project",
  "sourceName": "contracts/Project.sol",
  "abi": [
    {
      "inputs": [
        {
          "internalType": "address",
          "name": "_fundContractAddress",
          "type": "address"
        }
      ],
      "stateMutability": "nonpayable",
      "type": "constructor"
    },
    {
      "anonymous": false,
      "inputs": [
        {
          "indexed": false,
          "internalType": "address",
          "name": "_projectAddress",
          "type": "address"
        },
        {
          "indexed": false,
          "internalType": "address",
          "name": "_contributorAddress",
          "type": "address"
        },
        {
          "indexed": false,
          "internalType": "uint256",
          "name": "_amount",
          "type": "uint256"
        }
      ],
      "name": "contributionEvent",
      "type": "event"
    },
    {
      "anonymous": false,
      "inputs": [
        {
          "indexed": false,
          "internalType": "string",
          "name": "_name",
          "type": "string"
        },
        {
          "indexed": false,
          "internalType": "string",
          "name": "_description",
          "type": "string"
        },
        {
          "indexed": false,
          "internalType": "address",
          "name": "_projectAddress",
          "type": "address"
        },
        {
          "indexed": false,
          "internalType": "uint256",
          "name": "_releaseTime",
          "type": "uint256"
        },
        {
          "indexed": false,
          "internalType": "uint256",
          "name": "_target",
          "type": "uint256"
        },
        {
          "indexed": false,
          "internalType": "address",
          "name": "_owner",
          "type": "address"
        },
        {
          "indexed": false,
          "internalType": "uint256",
          "name": "_totalInvestors",
          "type": "uint256"
        },
        {
          "indexed": false,
          "internalType": "uint256",
          "name": "_votes",
          "type": "uint256"
        }
      ],
      "name": "projectCreated",
      "type": "event"
    },
    {
      "anonymous": false,
      "inputs": [
        {
          "indexed": false,
          "internalType": "string",
          "name": "_name",
          "type": "string"
        },
        {
          "indexed": false,
          "internalType": "string",
          "name": "_description",
          "type": "string"
        },
        {
          "indexed": false,
          "internalType": "address",
          "name": "_projectAddress",
          "type": "address"
        },
        {
          "indexed": false,
          "internalType": "address",
          "name": "_owner",
          "type": "address"
        },
        {
          "indexed": false,
          "internalType": "uint256",
          "name": "_target",
          "type": "uint256"
        }
      ],
      "name": "projectRemoved",
      "type": "event"
    },
    {
      "anonymous": false,
      "inputs": [
        {
          "indexed": false,
          "internalType": "address",
          "name": "_projectAddress",
          "type": "address"
        },
        {
          "indexed": false,
          "internalType": "address",
          "name": "_contrinutorAddress",
          "type": "address"
        }
      ],
      "name": "refundContributionEvent",
      "type": "event"
    },
    {
      "anonymous": false,
      "inputs": [
        {
          "indexed": false,
          "internalType": "address",
          "name": "_projectAddress",
          "type": "address"
        },
        {
          "indexed": false,
          "internalType": "address",
          "name": "_owner",
          "type": "address"
        },
        {
          "indexed": false,
          "internalType": "uint256",
          "name": "_target",
          "type": "uint256"
        },
        {
          "indexed": false,
          "internalType": "uint256",
          "name": "_releaseTime",
          "type": "uint256"
        },
        {
          "indexed": false,
          "internalType": "uint256",
          "name": "_votes",
          "type": "uint256"
        },
        {
          "indexed": false,
          "internalType": "uint256",
          "name": "_totalInvestors",
          "type": "uint256"
        }
      ],
      "name": "releaseFundsEvent",
      "type": "event"
    },
    {
      "anonymous": false,
      "inputs": [
        {
          "indexed": false,
          "internalType": "address",
          "name": "_projectAddress",
          "type": "address"
        },
        {
          "indexed": false,
          "internalType": "address",
          "name": "_contributorAddress",
          "type": "address"
        },
        {
          "indexed": false,
          "internalType": "bool",
          "name": "_toggle",
          "type": "bool"
        }
      ],
      "name": "voteToggle",
      "type": "event"
    },
    {
      "inputs": [
        {
          "internalType": "string",
          "name": "_name",
          "type": "string"
        },
        {
          "internalType": "string",
          "name": "_description",
          "type": "string"
        },
        {
          "internalType": "address",
          "name": "_address",
          "type": "address"
        },
        {
          "internalType": "uint256",
          "name": "_target",
          "type": "uint256"
        }
      ],
      "name": "addProject",
      "outputs": [],
      "stateMutability": "nonpayable",
      "type": "function"
    },
    {
      "inputs": [
        {
          "internalType": "address",
          "name": "_projectAddress",
          "type": "address"
        }
      ],
      "name": "contributeToProject",
      "outputs": [],
      "stateMutability": "payable",
      "type": "function"
    },
    {
      "inputs": [
        {
          "internalType": "address",
          "name": "_contributorAddress",
          "type": "address"
        },
        {
          "internalType": "address",
          "name": "_projectAddress",
          "type": "address"
        }
      ],
      "name": "contributionInfo",
      "outputs": [
        {
          "internalType": "bool",
          "name": "",
          "type": "bool"
        }
      ],
      "stateMutability": "view",
      "type": "function"
    },
    {
      "inputs": [
        {
          "internalType": "address",
          "name": "_contributorAddress",
          "type": "address"
        },
        {
          "internalType": "address",
          "name": "_projectAddress",
          "type": "address"
        }
      ],
      "name": "getContribution",
      "outputs": [
        {
          "internalType": "uint256",
          "name": "",
          "type": "uint256"
        }
      ],
      "stateMutability": "view",
      "type": "function"
    },
    {
      "inputs": [
        {
          "internalType": "address",
          "name": "_address",
          "type": "address"
        }
      ],
      "name": "getOwnerofProject",
      "outputs": [
        {
          "internalType": "address",
          "name": "",
          "type": "address"
        }
      ],
      "stateMutability": "view",
      "type": "function"
    },
    {
      "inputs": [
        {
          "internalType": "address",
          "name": "_address",
          "type": "address"
        }
      ],
      "name": "getProject",
      "outputs": [
        {
          "components": [
            {
              "internalType": "uint256",
              "name": "projectId",
              "type": "uint256"
            },
            {
              "internalType": "string",
              "name": "name",
              "type": "string"
            },
            {
              "internalType": "string",
              "name": "description",
              "type": "string"
            },
            {
              "internalType": "address",
              "name": "projectAddress",
              "type": "address"
            },
            {
              "internalType": "uint256",
              "name": "releaseTime",
              "type": "uint256"
            },
            {
              "internalType": "uint256",
              "name": "target",
              "type": "uint256"
            },
            {
              "internalType": "address",
              "name": "owner",
              "type": "address"
            },
            {
              "internalType": "uint256",
              "name": "totalInvestors",
              "type": "uint256"
            },
            {
              "internalType": "uint256",
              "name": "votes",
              "type": "uint256"
            }
          ],
          "internalType": "struct Project.project",
          "name": "",
          "type": "tuple"
        }
      ],
      "stateMutability": "view",
      "type": "function"
    },
    {
      "inputs": [],
      "name": "getTotalNumberofProjects",
      "outputs": [
        {
          "internalType": "uint256",
          "name": "",
          "type": "uint256"
        }
      ],
      "stateMutability": "view",
      "type": "function"
    },
    {
      "inputs": [
        {
          "internalType": "address",
          "name": "_contributor",
          "type": "address"
        },
        {
          "internalType": "address",
          "name": "_projectAddress",
          "type": "address"
        }
      ],
      "name": "getVotingInfo",
      "outputs": [
        {
          "internalType": "bool",
          "name": "",
          "type": "bool"
        }
      ],
      "stateMutability": "view",
      "type": "function"
    },
    {
      "inputs": [
        {
          "internalType": "address",
          "name": "_projectAddress",
          "type": "address"
        }
      ],
      "name": "refundContribution",
      "outputs": [],
      "stateMutability": "nonpayable",
      "type": "function"
    },
    {
      "inputs": [
        {
          "internalType": "address",
          "name": "_projectAddress",
          "type": "address"
        }
      ],
      "name": "releaseFunds",
      "outputs": [],
      "stateMutability": "nonpayable",
      "type": "function"
    },
    {
      "inputs": [
        {
          "internalType": "address",
          "name": "_address",
          "type": "address"
        }
      ],
      "name": "removeProject",
      "outputs": [],
      "stateMutability": "nonpayable",
      "type": "function"
    },
    {
      "inputs": [
        {
          "internalType": "address",
          "name": "_projectAddress",
          "type": "address"
        }
      ],
      "name": "toggleVote",
      "outputs": [],
      "stateMutability": "nonpayable",
      "type": "function"
    }
  ],
  "bytecode": "0x60c06040523480156200001157600080fd5b5060405162003d8038038062003d80833981810160405281019062000037919062000110565b3373ffffffffffffffffffffffffffffffffffffffff1660a08173ffffffffffffffffffffffffffffffffffffffff16815250508073ffffffffffffffffffffffffffffffffffffffff1660808173ffffffffffffffffffffffffffffffffffffffff16815250505062000142565b600080fd5b600073ffffffffffffffffffffffffffffffffffffffff82169050919050565b6000620000d882620000ab565b9050919050565b620000ea81620000cb565b8114620000f657600080fd5b50565b6000815190506200010a81620000df565b92915050565b600060208284031215620001295762000128620000a6565b5b60006200013984828501620000f9565b91505092915050565b60805160a051613bd5620001ab600039600050506000818161044c015281816109fd01528181610ad901528181610cd701528181611216015281816116da01528181611eb201528181611f8e0152818161219a015281816126b901526127570152613bd56000f3fe6080604052600436106100a75760003560e01c80637258c074116100645780637258c074146101cc578063a96aab5814610209578063b9ceef2214610232578063e4cb19411461025b578063f987070514610298578063ff6f4634146102d5576100a7565b80630c0ad299146100ac578063126eac43146100d5578063192e7a7b14610112578063252bcf9d1461013b578063552078571461016657806370f477cd146101a3575b600080fd5b3480156100b857600080fd5b506100d360048036038101906100ce9190612abc565b6102f1565b005b3480156100e157600080fd5b506100fc60048036038101906100f79190612ae9565b61096f565b6040516101099190612b42565b60405180910390f35b34801561011e57600080fd5b5061013960048036038101906101349190612abc565b610b7e565b005b34801561014757600080fd5b5061015061108d565b60405161015d9190612b42565b60405180910390f35b34801561017257600080fd5b5061018d60048036038101906101889190612abc565b611097565b60405161019a9190612b6c565b60405180910390f35b3480156101af57600080fd5b506101ca60048036038101906101c59190612abc565b61118a565b005b3480156101d857600080fd5b506101f360048036038101906101ee9190612ae9565b6115e1565b6040516102009190612ba2565b60405180910390f35b34801561021557600080fd5b50610230600480360381019061022b9190612d2f565b61177d565b005b34801561023e57600080fd5b5061025960048036038101906102549190612abc565b611e26565b005b34801561026757600080fd5b50610282600480360381019061027d9190612ae9565b61210c565b60405161028f9190612ba2565b60405180910390f35b3480156102a457600080fd5b506102bf60048036038101906102ba9190612abc565b612309565b6040516102cc9190612f37565b60405180910390f35b6102ef60048036038101906102ea9190612abc565b6125ec565b005b806000600260008373ffffffffffffffffffffffffffffffffffffffff1673ffffffffffffffffffffffffffffffffffffffff1681526020019081526020016000206000015403610377576040517f08c379a000000000000000000000000000000000000000000000000000000000815260040161036e90612fdc565b60405180910390fd5b81600260008273ffffffffffffffffffffffffffffffffffffffff1673ffffffffffffffffffffffffffffffffffffffff16815260200190815260200160002060060160009054906101000a900473ffffffffffffffffffffffffffffffffffffffff1673ffffffffffffffffffffffffffffffffffffffff163373ffffffffffffffffffffffffffffffffffffffff1614610448576040517f08c379a000000000000000000000000000000000000000000000000000000000815260040161043f9061306e565b60405180910390fd5b60007f000000000000000000000000000000000000000000000000000000000000000073ffffffffffffffffffffffffffffffffffffffff1663f8b2cb4f856040518263ffffffff1660e01b81526004016104a39190612b6c565b602060405180830381865afa1580156104c0573d6000803e3d6000fd5b505050506040513d601f19601f820116820180604052508101906104e491906130a3565b14610524576040517f08c379a000000000000000000000000000000000000000000000000000000000815260040161051b90613142565b60405180910390fd5b60405180610120016040528060008152602001604051806020016040528060008152508152602001604051806020016040528060008152508152602001600073ffffffffffffffffffffffffffffffffffffffff1681526020016000815260200160008152602001600073ffffffffffffffffffffffffffffffffffffffff16815260200160008152602001600081525060046001600260008773ffffffffffffffffffffffffffffffffffffffff1673ffffffffffffffffffffffffffffffffffffffff168152602001908152602001600020600001546106069190613191565b81548110610617576106166131c5565b5b90600052602060002090600902016000820151816000015560208201518160010190816106449190613400565b50604082015181600201908161065a9190613400565b5060608201518160030160006101000a81548173ffffffffffffffffffffffffffffffffffffffff021916908373ffffffffffffffffffffffffffffffffffffffff1602179055506080820151816004015560a0820151816005015560c08201518160060160006101000a81548173ffffffffffffffffffffffffffffffffffffffff021916908373ffffffffffffffffffffffffffffffffffffffff16021790555060e08201518160070155610100820151816008015590505060016000815480929190610728906134d2565b91905055507f198bea8a0f7bf1066c35e74dcf01b4778c8785bf9a5b357320ce795d9d5ee2b9600260008573ffffffffffffffffffffffffffffffffffffffff1673ffffffffffffffffffffffffffffffffffffffff168152602001908152602001600020600101600260008673ffffffffffffffffffffffffffffffffffffffff1673ffffffffffffffffffffffffffffffffffffffff16815260200190815260200160002060020185600260008873ffffffffffffffffffffffffffffffffffffffff1673ffffffffffffffffffffffffffffffffffffffff16815260200190815260200160002060060160009054906101000a900473ffffffffffffffffffffffffffffffffffffffff16600260008973ffffffffffffffffffffffffffffffffffffffff1673ffffffffffffffffffffffffffffffffffffffff1681526020019081526020016000206005015460405161088a95949392919061357f565b60405180910390a1600260008473ffffffffffffffffffffffffffffffffffffffff1673ffffffffffffffffffffffffffffffffffffffff1681526020019081526020016000206000808201600090556001820160006108ea9190612975565b6002820160006108fa9190612975565b6003820160006101000a81549073ffffffffffffffffffffffffffffffffffffffff0219169055600482016000905560058201600090556006820160006101000a81549073ffffffffffffffffffffffffffffffffffffffff0219169055600782016000905560088201600090555050505050565b6000816000600260008373ffffffffffffffffffffffffffffffffffffffff1673ffffffffffffffffffffffffffffffffffffffff16815260200190815260200160002060000154036109f7576040517f08c379a00000000000000000000000000000000000000000000000000000000081526004016109ee90612fdc565b60405180910390fd5b838360007f000000000000000000000000000000000000000000000000000000000000000073ffffffffffffffffffffffffffffffffffffffff1663ebe618ff84846040518363ffffffff1660e01b8152600401610a569291906135e0565b602060405180830381865afa158015610a73573d6000803e3d6000fd5b505050506040513d601f19601f82011682018060405250810190610a9791906130a3565b11610ad7576040517f08c379a0000000000000000000000000000000000000000000000000000000008152600401610ace9061367b565b60405180910390fd5b7f000000000000000000000000000000000000000000000000000000000000000073ffffffffffffffffffffffffffffffffffffffff1663ebe618ff87876040518363ffffffff1660e01b8152600401610b329291906135e0565b602060405180830381865afa158015610b4f573d6000803e3d6000fd5b505050506040513d601f19601f82011682018060405250810190610b7391906130a3565b935050505092915050565b806000600260008373ffffffffffffffffffffffffffffffffffffffff1673ffffffffffffffffffffffffffffffffffffffff1681526020019081526020016000206000015403610c04576040517f08c379a0000000000000000000000000000000000000000000000000000000008152600401610bfb90612fdc565b60405180910390fd5b81600260008273ffffffffffffffffffffffffffffffffffffffff1673ffffffffffffffffffffffffffffffffffffffff16815260200190815260200160002060060160009054906101000a900473ffffffffffffffffffffffffffffffffffffffff1673ffffffffffffffffffffffffffffffffffffffff163373ffffffffffffffffffffffffffffffffffffffff1614610cd5576040517f08c379a0000000000000000000000000000000000000000000000000000000008152600401610ccc9061306e565b60405180910390fd5b7f000000000000000000000000000000000000000000000000000000000000000073ffffffffffffffffffffffffffffffffffffffff16631a1c9af484600260008773ffffffffffffffffffffffffffffffffffffffff1673ffffffffffffffffffffffffffffffffffffffff16815260200190815260200160002060060160009054906101000a900473ffffffffffffffffffffffffffffffffffffffff16600260008873ffffffffffffffffffffffffffffffffffffffff1673ffffffffffffffffffffffffffffffffffffffff16815260200190815260200160002060050154600260008973ffffffffffffffffffffffffffffffffffffffff1673ffffffffffffffffffffffffffffffffffffffff16815260200190815260200160002060040154600260008a73ffffffffffffffffffffffffffffffffffffffff1673ffffffffffffffffffffffffffffffffffffffff16815260200190815260200160002060080154600260008b73ffffffffffffffffffffffffffffffffffffffff1673ffffffffffffffffffffffffffffffffffffffff168152602001908152602001600020600701546040518763ffffffff1660e01b8152600401610ea29695949392919061369b565b600060405180830381600087803b158015610ebc57600080fd5b505af1158015610ed0573d6000803e3d6000fd5b505050507f0b1b6d870cbb778cbdd728ed661bb6eda9086412e4a8554071c7947939e0e38483600260008673ffffffffffffffffffffffffffffffffffffffff1673ffffffffffffffffffffffffffffffffffffffff16815260200190815260200160002060060160009054906101000a900473ffffffffffffffffffffffffffffffffffffffff16600260008773ffffffffffffffffffffffffffffffffffffffff1673ffffffffffffffffffffffffffffffffffffffff16815260200190815260200160002060050154600260008873ffffffffffffffffffffffffffffffffffffffff1673ffffffffffffffffffffffffffffffffffffffff16815260200190815260200160002060040154600260008973ffffffffffffffffffffffffffffffffffffffff1673ffffffffffffffffffffffffffffffffffffffff16815260200190815260200160002060080154600260008a73ffffffffffffffffffffffffffffffffffffffff1673ffffffffffffffffffffffffffffffffffffffff168152602001908152602001600020600701546040516110779695949392919061369b565b60405180910390a1611088836102f1565b505050565b6000600154905090565b6000816000600260008373ffffffffffffffffffffffffffffffffffffffff1673ffffffffffffffffffffffffffffffffffffffff168152602001908152602001600020600001540361111f576040517f08c379a000000000000000000000000000000000000000000000000000000000815260040161111690612fdc565b60405180910390fd5b600260008473ffffffffffffffffffffffffffffffffffffffff1673ffffffffffffffffffffffffffffffffffffffff16815260200190815260200160002060060160009054906101000a900473ffffffffffffffffffffffffffffffffffffffff16915050919050565b806000600260008373ffffffffffffffffffffffffffffffffffffffff1673ffffffffffffffffffffffffffffffffffffffff1681526020019081526020016000206000015403611210576040517f08c379a000000000000000000000000000000000000000000000000000000000815260040161120790612fdc565b60405180910390fd5b338260007f000000000000000000000000000000000000000000000000000000000000000073ffffffffffffffffffffffffffffffffffffffff1663ebe618ff84846040518363ffffffff1660e01b815260040161126f9291906135e0565b602060405180830381865afa15801561128c573d6000803e3d6000fd5b505050506040513d601f19601f820116820180604052508101906112b091906130a3565b116112f0576040517f08c379a00000000000000000000000000000000000000000000000000000000081526004016112e79061367b565b60405180910390fd5b600360003373ffffffffffffffffffffffffffffffffffffffff1673ffffffffffffffffffffffffffffffffffffffff16815260200190815260200160002060008573ffffffffffffffffffffffffffffffffffffffff1673ffffffffffffffffffffffffffffffffffffffff16815260200190815260200160002060009054906101000a900460ff16156114af576000600360003373ffffffffffffffffffffffffffffffffffffffff1673ffffffffffffffffffffffffffffffffffffffff16815260200190815260200160002060008673ffffffffffffffffffffffffffffffffffffffff1673ffffffffffffffffffffffffffffffffffffffff16815260200190815260200160002060006101000a81548160ff0219169083151502179055506001600260008673ffffffffffffffffffffffffffffffffffffffff1673ffffffffffffffffffffffffffffffffffffffff16815260200190815260200160002060080160008282546114679190613191565b925050819055507f0130ff0b47837190bd1305d64d338810a5ddabd794b2ea0dbb6df41de3535edc843360006040516114a2939291906136fc565b60405180910390a16115db565b6001600360003373ffffffffffffffffffffffffffffffffffffffff1673ffffffffffffffffffffffffffffffffffffffff16815260200190815260200160002060008673ffffffffffffffffffffffffffffffffffffffff1673ffffffffffffffffffffffffffffffffffffffff16815260200190815260200160002060006101000a81548160ff0219169083151502179055506001600260008673ffffffffffffffffffffffffffffffffffffffff1673ffffffffffffffffffffffffffffffffffffffff16815260200190815260200160002060080160008282546115979190613733565b925050819055507f0130ff0b47837190bd1305d64d338810a5ddabd794b2ea0dbb6df41de3535edc843360016040516115d2939291906136fc565b60405180910390a15b50505050565b6000816000600260008373ffffffffffffffffffffffffffffffffffffffff1673ffffffffffffffffffffffffffffffffffffffff1681526020019081526020016000206000015403611669576040517f08c379a000000000000000000000000000000000000000000000000000000000815260040161166090612fdc565b60405180910390fd5b600073ffffffffffffffffffffffffffffffffffffffff168473ffffffffffffffffffffffffffffffffffffffff16036116d8576040517f08c379a00000000000000000000000000000000000000000000000000000000081526004016116cf906137b3565b60405180910390fd5b7f000000000000000000000000000000000000000000000000000000000000000073ffffffffffffffffffffffffffffffffffffffff1663bb2061b285856040518363ffffffff1660e01b81526004016117339291906135e0565b602060405180830381865afa158015611750573d6000803e3d6000fd5b505050506040513d601f19601f8201168201806040525081019061177491906137ff565b91505092915050565b6000600260008473ffffffffffffffffffffffffffffffffffffffff1673ffffffffffffffffffffffffffffffffffffffff1681526020019081526020016000206000015414611802576040517f08c379a00000000000000000000000000000000000000000000000000000000081526004016117f99061389e565b60405180910390fd5b600073ffffffffffffffffffffffffffffffffffffffff168273ffffffffffffffffffffffffffffffffffffffff1603611871576040517f08c379a00000000000000000000000000000000000000000000000000000000081526004016118689061390a565b60405180910390fd5b604051806101200160405280600160005461188c9190613733565b81526020018581526020018481526020018373ffffffffffffffffffffffffffffffffffffffff1681526020016276a700426118c89190613733565b81526020018281526020013373ffffffffffffffffffffffffffffffffffffffff168152602001600081526020016000815250600260008473ffffffffffffffffffffffffffffffffffffffff1673ffffffffffffffffffffffffffffffffffffffff1681526020019081526020016000206000820151816000015560208201518160010190816119599190613400565b50604082015181600201908161196f9190613400565b5060608201518160030160006101000a81548173ffffffffffffffffffffffffffffffffffffffff021916908373ffffffffffffffffffffffffffffffffffffffff1602179055506080820151816004015560a0820151816005015560c08201518160060160006101000a81548173ffffffffffffffffffffffffffffffffffffffff021916908373ffffffffffffffffffffffffffffffffffffffff16021790555060e0820151816007015561010082015181600801559050506004600260008473ffffffffffffffffffffffffffffffffffffffff1673ffffffffffffffffffffffffffffffffffffffff16815260200190815260200160002090806001815401808255809150506001900390600052602060002090600902016000909190919091506000820154816000015560018201816001019081611ab29190613940565b5060028201816002019081611ac79190613940565b506003820160009054906101000a900473ffffffffffffffffffffffffffffffffffffffff168160030160006101000a81548173ffffffffffffffffffffffffffffffffffffffff021916908373ffffffffffffffffffffffffffffffffffffffff16021790555060048201548160040155600582015481600501556006820160009054906101000a900473ffffffffffffffffffffffffffffffffffffffff168160060160006101000a81548173ffffffffffffffffffffffffffffffffffffffff021916908373ffffffffffffffffffffffffffffffffffffffff16021790555060078201548160070155600882015481600801555050600080815480929190611bd290613a28565b919050555060016000815480929190611bea90613a28565b91905055507f58f73aafa87d9b04667754b00af7725ad377ed0c56a41f040c7b70edb6e618e3600260008473ffffffffffffffffffffffffffffffffffffffff1673ffffffffffffffffffffffffffffffffffffffff168152602001908152602001600020600101600260008573ffffffffffffffffffffffffffffffffffffffff1673ffffffffffffffffffffffffffffffffffffffff16815260200190815260200160002060020184600260008773ffffffffffffffffffffffffffffffffffffffff1673ffffffffffffffffffffffffffffffffffffffff16815260200190815260200160002060040154600260008873ffffffffffffffffffffffffffffffffffffffff1673ffffffffffffffffffffffffffffffffffffffff16815260200190815260200160002060050154600260008973ffffffffffffffffffffffffffffffffffffffff1673ffffffffffffffffffffffffffffffffffffffff16815260200190815260200160002060060160009054906101000a900473ffffffffffffffffffffffffffffffffffffffff16600260008a73ffffffffffffffffffffffffffffffffffffffff1673ffffffffffffffffffffffffffffffffffffffff16815260200190815260200160002060070154600260008b73ffffffffffffffffffffffffffffffffffffffff1673ffffffffffffffffffffffffffffffffffffffff16815260200190815260200160002060080154604051611e18989796959493929190613a70565b60405180910390a150505050565b806000600260008373ffffffffffffffffffffffffffffffffffffffff1673ffffffffffffffffffffffffffffffffffffffff1681526020019081526020016000206000015403611eac576040517f08c379a0000000000000000000000000000000000000000000000000000000008152600401611ea390612fdc565b60405180910390fd5b338260007f000000000000000000000000000000000000000000000000000000000000000073ffffffffffffffffffffffffffffffffffffffff1663ebe618ff84846040518363ffffffff1660e01b8152600401611f0b9291906135e0565b602060405180830381865afa158015611f28573d6000803e3d6000fd5b505050506040513d601f19601f82011682018060405250810190611f4c91906130a3565b11611f8c576040517f08c379a0000000000000000000000000000000000000000000000000000000008152600401611f839061367b565b60405180910390fd5b7f000000000000000000000000000000000000000000000000000000000000000073ffffffffffffffffffffffffffffffffffffffff16635e30b8a633866040518363ffffffff1660e01b8152600401611fe79291906135e0565b600060405180830381600087803b15801561200157600080fd5b505af1158015612015573d6000803e3d6000fd5b505050506001600260008673ffffffffffffffffffffffffffffffffffffffff1673ffffffffffffffffffffffffffffffffffffffff168152602001908152602001600020600701600082825461206c9190613191565b925050819055506001600260008673ffffffffffffffffffffffffffffffffffffffff1673ffffffffffffffffffffffffffffffffffffffff16815260200190815260200160002060080160008282546120c69190613191565b925050819055507f9abdc7a8f75a6b2dced25deba1234cb7e899aa3bad5fbd80da48f6877bf9868884336040516120fe9291906135e0565b60405180910390a150505050565b6000816000600260008373ffffffffffffffffffffffffffffffffffffffff1673ffffffffffffffffffffffffffffffffffffffff1681526020019081526020016000206000015403612194576040517f08c379a000000000000000000000000000000000000000000000000000000000815260040161218b90612fdc565b60405180910390fd5b838360007f000000000000000000000000000000000000000000000000000000000000000073ffffffffffffffffffffffffffffffffffffffff1663ebe618ff84846040518363ffffffff1660e01b81526004016121f39291906135e0565b602060405180830381865afa158015612210573d6000803e3d6000fd5b505050506040513d601f19601f8201168201806040525081019061223491906130a3565b11612274576040517f08c379a000000000000000000000000000000000000000000000000000000000815260040161226b9061367b565b60405180910390fd5b600360008773ffffffffffffffffffffffffffffffffffffffff1673ffffffffffffffffffffffffffffffffffffffff16815260200190815260200160002060008673ffffffffffffffffffffffffffffffffffffffff1673ffffffffffffffffffffffffffffffffffffffff16815260200190815260200160002060009054906101000a900460ff16935050505092915050565b6123116129b5565b816000600260008373ffffffffffffffffffffffffffffffffffffffff1673ffffffffffffffffffffffffffffffffffffffff1681526020019081526020016000206000015403612397576040517f08c379a000000000000000000000000000000000000000000000000000000000815260040161238e90612fdc565b60405180910390fd5b600260008473ffffffffffffffffffffffffffffffffffffffff1673ffffffffffffffffffffffffffffffffffffffff16815260200190815260200160002060405180610120016040529081600082015481526020016001820180546123fc90613223565b80601f016020809104026020016040519081016040528092919081815260200182805461242890613223565b80156124755780601f1061244a57610100808354040283529160200191612475565b820191906000526020600020905b81548152906001019060200180831161245857829003601f168201915b5050505050815260200160028201805461248e90613223565b80601f01602080910402602001604051908101604052809291908181526020018280546124ba90613223565b80156125075780601f106124dc57610100808354040283529160200191612507565b820191906000526020600020905b8154815290600101906020018083116124ea57829003601f168201915b505050505081526020016003820160009054906101000a900473ffffffffffffffffffffffffffffffffffffffff1673ffffffffffffffffffffffffffffffffffffffff1673ffffffffffffffffffffffffffffffffffffffff16815260200160048201548152602001600582015481526020016006820160009054906101000a900473ffffffffffffffffffffffffffffffffffffffff1673ffffffffffffffffffffffffffffffffffffffff1673ffffffffffffffffffffffffffffffffffffffff16815260200160078201548152602001600882015481525050915050919050565b806000600260008373ffffffffffffffffffffffffffffffffffffffff1673ffffffffffffffffffffffffffffffffffffffff1681526020019081526020016000206000015403612672576040517f08c379a000000000000000000000000000000000000000000000000000000000815260040161266990612fdc565b60405180910390fd5b600034116126b5576040517f08c379a00000000000000000000000000000000000000000000000000000000081526004016126ac90613b48565b60405180910390fd5b60007f000000000000000000000000000000000000000000000000000000000000000073ffffffffffffffffffffffffffffffffffffffff1663ebe618ff33856040518363ffffffff1660e01b81526004016127129291906135e0565b602060405180830381865afa15801561272f573d6000803e3d6000fd5b505050506040513d601f19601f8201168201806040525081019061275391906130a3565b90507f000000000000000000000000000000000000000000000000000000000000000073ffffffffffffffffffffffffffffffffffffffff166307db37e73433866040518463ffffffff1660e01b81526004016127b19291906135e0565b6000604051808303818588803b1580156127ca57600080fd5b505af11580156127de573d6000803e3d6000fd5b505050505060008103612935576001600260008573ffffffffffffffffffffffffffffffffffffffff1673ffffffffffffffffffffffffffffffffffffffff168152602001908152602001600020600701600082825461283e9190613733565b925050819055506001600260008573ffffffffffffffffffffffffffffffffffffffff1673ffffffffffffffffffffffffffffffffffffffff16815260200190815260200160002060080160008282546128989190613733565b925050819055506001600360003373ffffffffffffffffffffffffffffffffffffffff1673ffffffffffffffffffffffffffffffffffffffff16815260200190815260200160002060008573ffffffffffffffffffffffffffffffffffffffff1673ffffffffffffffffffffffffffffffffffffffff16815260200190815260200160002060006101000a81548160ff0219169083151502179055505b7f5f4784839bf94cfc8d222de61d8f42fdf916ae9ab3c45ce15362117cc1c9bf0a83333460405161296893929190613b68565b60405180910390a1505050565b50805461298190613223565b6000825580601f1061299357506129b2565b601f0160209004906000526020600020908101906129b19190612a2d565b5b50565b604051806101200160405280600081526020016060815260200160608152602001600073ffffffffffffffffffffffffffffffffffffffff1681526020016000815260200160008152602001600073ffffffffffffffffffffffffffffffffffffffff16815260200160008152602001600081525090565b5b80821115612a46576000816000905550600101612a2e565b5090565b6000604051905090565b600080fd5b600080fd5b600073ffffffffffffffffffffffffffffffffffffffff82169050919050565b6000612a8982612a5e565b9050919050565b612a9981612a7e565b8114612aa457600080fd5b50565b600081359050612ab681612a90565b92915050565b600060208284031215612ad257612ad1612a54565b5b6000612ae084828501612aa7565b91505092915050565b60008060408385031215612b0057612aff612a54565b5b6000612b0e85828601612aa7565b9250506020612b1f85828601612aa7565b9150509250929050565b6000819050919050565b612b3c81612b29565b82525050565b6000602082019050612b576000830184612b33565b92915050565b612b6681612a7e565b82525050565b6000602082019050612b816000830184612b5d565b92915050565b60008115159050919050565b612b9c81612b87565b82525050565b6000602082019050612bb76000830184612b93565b92915050565b600080fd5b600080fd5b6000601f19601f8301169050919050565b7f4e487b7100000000000000000000000000000000000000000000000000000000600052604160045260246000fd5b612c1082612bc7565b810181811067ffffffffffffffff82111715612c2f57612c2e612bd8565b5b80604052505050565b6000612c42612a4a565b9050612c4e8282612c07565b919050565b600067ffffffffffffffff821115612c6e57612c6d612bd8565b5b612c7782612bc7565b9050602081019050919050565b82818337600083830152505050565b6000612ca6612ca184612c53565b612c38565b905082815260208101848484011115612cc257612cc1612bc2565b5b612ccd848285612c84565b509392505050565b600082601f830112612cea57612ce9612bbd565b5b8135612cfa848260208601612c93565b91505092915050565b612d0c81612b29565b8114612d1757600080fd5b50565b600081359050612d2981612d03565b92915050565b60008060008060808587031215612d4957612d48612a54565b5b600085013567ffffffffffffffff811115612d6757612d66612a59565b5b612d7387828801612cd5565b945050602085013567ffffffffffffffff811115612d9457612d93612a59565b5b612da087828801612cd5565b9350506040612db187828801612aa7565b9250506060612dc287828801612d1a565b91505092959194509250565b612dd781612b29565b82525050565b600081519050919050565b600082825260208201905092915050565b60005b83811015612e17578082015181840152602081019050612dfc565b60008484015250505050565b6000612e2e82612ddd565b612e388185612de8565b9350612e48818560208601612df9565b612e5181612bc7565b840191505092915050565b612e6581612a7e565b82525050565b600061012083016000830151612e846000860182612dce565b5060208301518482036020860152612e9c8282612e23565b91505060408301518482036040860152612eb68282612e23565b9150506060830151612ecb6060860182612e5c565b506080830151612ede6080860182612dce565b5060a0830151612ef160a0860182612dce565b5060c0830151612f0460c0860182612e5c565b5060e0830151612f1760e0860182612dce565b50610100830151612f2c610100860182612dce565b508091505092915050565b60006020820190508181036000830152612f518184612e6b565b905092915050565b600082825260208201905092915050565b7f4e6f2070726f6a65637420657869737473207769746820676976656e2061646460008201527f7265737300000000000000000000000000000000000000000000000000000000602082015250565b6000612fc6602483612f59565b9150612fd182612f6a565b604082019050919050565b60006020820190508181036000830152612ff581612fb9565b9050919050565b7f4f6e6c79204f776e6572206f66207468652050726f6a6563742063616e20636160008201527f6c6c207468697300000000000000000000000000000000000000000000000000602082015250565b6000613058602783612f59565b915061306382612ffc565b604082019050919050565b600060208201905081810360008301526130878161304b565b9050919050565b60008151905061309d81612d03565b92915050565b6000602082840312156130b9576130b8612a54565b5b60006130c78482850161308e565b91505092915050565b7f50726f6a6563742043616e27742062652072656d6f7665642e2046756e64732060008201527f61726520696e7665737465642062792070656f706c652e000000000000000000602082015250565b600061312c603783612f59565b9150613137826130d0565b604082019050919050565b6000602082019050818103600083015261315b8161311f565b9050919050565b7f4e487b7100000000000000000000000000000000000000000000000000000000600052601160045260246000fd5b600061319c82612b29565b91506131a783612b29565b92508282039050818111156131bf576131be613162565b5b92915050565b7f4e487b7100000000000000000000000000000000000000000000000000000000600052603260045260246000fd5b7f4e487b7100000000000000000000000000000000000000000000000000000000600052602260045260246000fd5b6000600282049050600182168061323b57607f821691505b60208210810361324e5761324d6131f4565b5b50919050565b60008190508160005260206000209050919050565b60006020601f8301049050919050565b600082821b905092915050565b6000600883026132b67fffffffffffffffffffffffffffffffffffffffffffffffffffffffffffffffff82613279565b6132c08683613279565b95508019841693508086168417925050509392505050565b6000819050919050565b60006132fd6132f86132f384612b29565b6132d8565b612b29565b9050919050565b6000819050919050565b613317836132e2565b61332b61332382613304565b848454613286565b825550505050565b600090565b613340613333565b61334b81848461330e565b505050565b5b8181101561336f57613364600082613338565b600181019050613351565b5050565b601f8211156133b45761338581613254565b61338e84613269565b8101602085101561339d578190505b6133b16133a985613269565b830182613350565b50505b505050565b600082821c905092915050565b60006133d7600019846008026133b9565b1980831691505092915050565b60006133f083836133c6565b9150826002028217905092915050565b61340982612ddd565b67ffffffffffffffff81111561342257613421612bd8565b5b61342c8254613223565b613437828285613373565b600060209050601f83116001811461346a5760008415613458578287015190505b61346285826133e4565b8655506134ca565b601f19841661347886613254565b60005b828110156134a05784890151825560018201915060208501945060208101905061347b565b868310156134bd57848901516134b9601f8916826133c6565b8355505b6001600288020188555050505b505050505050565b60006134dd82612b29565b9150600082036134f0576134ef613162565b5b600182039050919050565b6000815461350881613223565b6135128186612f59565b9450600182166000811461352d576001811461354357613576565b60ff198316865281151560200286019350613576565b61354c85613254565b60005b8381101561356e5781548189015260018201915060208101905061354f565b808801955050505b50505092915050565b600060a082019050818103600083015261359981886134fb565b905081810360208301526135ad81876134fb565b90506135bc6040830186612b5d565b6135c96060830185612b5d565b6135d66080830184612b33565b9695505050505050565b60006040820190506135f56000830185612b5d565b6136026020830184612b5d565b9392505050565b7f596f752068617665206e6f7420636f6e747269627574656420746f207468697360008201527f2070726f6a656374000000000000000000000000000000000000000000000000602082015250565b6000613665602883612f59565b915061367082613609565b604082019050919050565b6000602082019050818103600083015261369481613658565b9050919050565b600060c0820190506136b06000830189612b5d565b6136bd6020830188612b5d565b6136ca6040830187612b33565b6136d76060830186612b33565b6136e46080830185612b33565b6136f160a0830184612b33565b979650505050505050565b60006060820190506137116000830186612b5d565b61371e6020830185612b5d565b61372b6040830184612b93565b949350505050565b600061373e82612b29565b915061374983612b29565b925082820190508082111561376157613760613162565b5b92915050565b7f5a65726f20416464726573730000000000000000000000000000000000000000600082015250565b600061379d600c83612f59565b91506137a882613767565b602082019050919050565b600060208201905081810360008301526137cc81613790565b9050919050565b6137dc81612b87565b81146137e757600080fd5b50565b6000815190506137f9816137d3565b92915050565b60006020828403121561381557613814612a54565b5b6000613823848285016137ea565b91505092915050565b7f4164647265737320616c7265616479206265696e67207573656420627920616e60008201527f6f746865722050726f6a65637400000000000000000000000000000000000000602082015250565b6000613888602d83612f59565b91506138938261382c565b604082019050919050565b600060208201905081810360008301526138b78161387b565b9050919050565b7f496e76616c696420616464726573730000000000000000000000000000000000600082015250565b60006138f4600f83612f59565b91506138ff826138be565b602082019050919050565b60006020820190508181036000830152613923816138e7565b9050919050565b60008154905061393981613223565b9050919050565b81810361394e575050613a26565b6139578261392a565b67ffffffffffffffff8111156139705761396f612bd8565b5b61397a8254613223565b613985828285613373565b6000601f8311600181146139b457600084156139a2578287015490505b6139ac85826133e4565b865550613a1f565b601f1984166139c287613254565b96506139cd86613254565b60005b828110156139f5578489015482556001820191506001850194506020810190506139d0565b86831015613a125784890154613a0e601f8916826133c6565b8355505b6001600288020188555050505b5050505050505b565b6000613a3382612b29565b91507fffffffffffffffffffffffffffffffffffffffffffffffffffffffffffffffff8203613a6557613a64613162565b5b600182019050919050565b6000610100820190508181036000830152613a8b818b6134fb565b90508181036020830152613a9f818a6134fb565b9050613aae6040830189612b5d565b613abb6060830188612b33565b613ac86080830187612b33565b613ad560a0830186612b5d565b613ae260c0830185612b33565b613aef60e0830184612b33565b9998505050505050505050565b7f416d6f756e742073686f756c642062652067726561746572207468616e203000600082015250565b6000613b32601f83612f59565b9150613b3d82613afc565b602082019050919050565b60006020820190508181036000830152613b6181613b25565b9050919050565b6000606082019050613b7d6000830186612b5d565b613b8a6020830185612b5d565b613b976040830184612b33565b94935050505056fea2646970667358221220f85bdc53aca787da99e2b7558a4a41da00421eae2d9249cffa42e401abc67ebe64736f6c63430008110033",
  "linkReferences": {},
  "deployedLinkReferences": {}
}