{
  "_format": "hh-sol-artifact-1",
  "contractName": "Project",
  "sourceName": "contracts/Project.sol",
  "abi": [
    {
      "inputs": [
        {
          "internalType": "address",
          "name": "_fundContractAddress",
          "type": "address"
        }
      ],
      "stateMutability": "nonpayable",
      "type": "constructor"
    },
    {
      "anonymous": false,
      "inputs": [
        {
          "indexed": false,
          "internalType": "address",
          "name": "_projectAddress",
          "type": "address"
        },
        {
          "indexed": false,
          "internalType": "address",
          "name": "_contributorAddress",
          "type": "address"
        },
        {
          "indexed": false,
          "internalType": "uint256",
          "name": "_amount",
          "type": "uint256"
        }
      ],
      "name": "contributionEvent",
      "type": "event"
    },
    {
      "anonymous": false,
      "inputs": [
        {
          "indexed": false,
          "internalType": "string",
          "name": "_name",
          "type": "string"
        },
        {
          "indexed": false,
          "internalType": "string",
          "name": "_description",
          "type": "string"
        },
        {
          "indexed": false,
          "internalType": "address",
          "name": "_projectAddress",
          "type": "address"
        },
        {
          "indexed": false,
          "internalType": "uint256",
          "name": "_releaseTime",
          "type": "uint256"
        },
        {
          "indexed": false,
          "internalType": "uint256",
          "name": "_target",
          "type": "uint256"
        },
        {
          "indexed": false,
          "internalType": "address",
          "name": "_owner",
          "type": "address"
        },
        {
          "indexed": false,
          "internalType": "uint256",
          "name": "_totalInvestors",
          "type": "uint256"
        },
        {
          "indexed": false,
          "internalType": "uint256",
          "name": "_votes",
          "type": "uint256"
        }
      ],
      "name": "projectCreated",
      "type": "event"
    },
    {
      "anonymous": false,
      "inputs": [
        {
          "indexed": false,
          "internalType": "string",
          "name": "_name",
          "type": "string"
        },
        {
          "indexed": false,
          "internalType": "string",
          "name": "_description",
          "type": "string"
        },
        {
          "indexed": false,
          "internalType": "address",
          "name": "_projectAddress",
          "type": "address"
        },
        {
          "indexed": false,
          "internalType": "address",
          "name": "_owner",
          "type": "address"
        },
        {
          "indexed": false,
          "internalType": "uint256",
          "name": "_target",
          "type": "uint256"
        }
      ],
      "name": "projectRemoved",
      "type": "event"
    },
    {
      "anonymous": false,
      "inputs": [
        {
          "indexed": false,
          "internalType": "address",
          "name": "_projectAddress",
          "type": "address"
        },
        {
          "indexed": false,
          "internalType": "address",
          "name": "_contrinutorAddress",
          "type": "address"
        }
      ],
      "name": "refundContributionEvent",
      "type": "event"
    },
    {
      "anonymous": false,
      "inputs": [
        {
          "indexed": false,
          "internalType": "address",
          "name": "_projectAddress",
          "type": "address"
        },
        {
          "indexed": false,
          "internalType": "address",
          "name": "_owner",
          "type": "address"
        },
        {
          "indexed": false,
          "internalType": "uint256",
          "name": "_target",
          "type": "uint256"
        },
        {
          "indexed": false,
          "internalType": "uint256",
          "name": "_releaseTime",
          "type": "uint256"
        },
        {
          "indexed": false,
          "internalType": "uint256",
          "name": "_votes",
          "type": "uint256"
        },
        {
          "indexed": false,
          "internalType": "uint256",
          "name": "_totalInvestors",
          "type": "uint256"
        }
      ],
      "name": "releaseFundsEvent",
      "type": "event"
    },
    {
      "anonymous": false,
      "inputs": [
        {
          "indexed": false,
          "internalType": "address",
          "name": "_projectAddress",
          "type": "address"
        },
        {
          "indexed": false,
          "internalType": "address",
          "name": "_contributorAddress",
          "type": "address"
        },
        {
          "indexed": false,
          "internalType": "bool",
          "name": "_toggle",
          "type": "bool"
        }
      ],
      "name": "voteToggle",
      "type": "event"
    },
    {
      "inputs": [
        {
          "internalType": "string",
          "name": "_name",
          "type": "string"
        },
        {
          "internalType": "string",
          "name": "_description",
          "type": "string"
        },
        {
          "internalType": "address",
          "name": "_address",
          "type": "address"
        },
        {
          "internalType": "uint256",
          "name": "_target",
          "type": "uint256"
        }
      ],
      "name": "addProject",
      "outputs": [],
      "stateMutability": "nonpayable",
      "type": "function"
    },
    {
      "inputs": [
        {
          "internalType": "address",
          "name": "_projectAddress",
          "type": "address"
        }
      ],
      "name": "contributeToProject",
      "outputs": [],
      "stateMutability": "payable",
      "type": "function"
    },
    {
      "inputs": [
        {
          "internalType": "address",
          "name": "_contributorAddress",
          "type": "address"
        },
        {
          "internalType": "address",
          "name": "_projectAddress",
          "type": "address"
        }
      ],
      "name": "getContribution",
      "outputs": [
        {
          "internalType": "uint256",
          "name": "",
          "type": "uint256"
        }
      ],
      "stateMutability": "view",
      "type": "function"
    },
    {
      "inputs": [
        {
          "internalType": "address",
          "name": "_address",
          "type": "address"
        }
      ],
      "name": "getOwnerofProject",
      "outputs": [
        {
          "internalType": "address",
          "name": "",
          "type": "address"
        }
      ],
      "stateMutability": "view",
      "type": "function"
    },
    {
      "inputs": [
        {
          "internalType": "address",
          "name": "_address",
          "type": "address"
        }
      ],
      "name": "getProject",
      "outputs": [
        {
          "components": [
            {
              "internalType": "uint256",
              "name": "projectId",
              "type": "uint256"
            },
            {
              "internalType": "string",
              "name": "name",
              "type": "string"
            },
            {
              "internalType": "string",
              "name": "description",
              "type": "string"
            },
            {
              "internalType": "address",
              "name": "projectAddress",
              "type": "address"
            },
            {
              "internalType": "uint256",
              "name": "releaseTime",
              "type": "uint256"
            },
            {
              "internalType": "uint256",
              "name": "target",
              "type": "uint256"
            },
            {
              "internalType": "address",
              "name": "owner",
              "type": "address"
            },
            {
              "internalType": "uint256",
              "name": "totalInvestors",
              "type": "uint256"
            },
            {
              "internalType": "uint256",
              "name": "votes",
              "type": "uint256"
            }
          ],
          "internalType": "struct Project.project",
          "name": "",
          "type": "tuple"
        }
      ],
      "stateMutability": "view",
      "type": "function"
    },
    {
      "inputs": [],
      "name": "getTotalNumberofProjects",
      "outputs": [
        {
          "internalType": "uint256",
          "name": "",
          "type": "uint256"
        }
      ],
      "stateMutability": "view",
      "type": "function"
    },
    {
      "inputs": [
        {
          "internalType": "address",
          "name": "_contributor",
          "type": "address"
        },
        {
          "internalType": "address",
          "name": "_projectAddress",
          "type": "address"
        }
      ],
      "name": "getVotingInfo",
      "outputs": [
        {
          "internalType": "bool",
          "name": "",
          "type": "bool"
        }
      ],
      "stateMutability": "view",
      "type": "function"
    },
    {
      "inputs": [
        {
          "internalType": "address",
          "name": "_projectAddress",
          "type": "address"
        }
      ],
      "name": "refundContribution",
      "outputs": [],
      "stateMutability": "nonpayable",
      "type": "function"
    },
    {
      "inputs": [
        {
          "internalType": "address",
          "name": "_projectAddress",
          "type": "address"
        }
      ],
      "name": "releaseFunds",
      "outputs": [],
      "stateMutability": "nonpayable",
      "type": "function"
    },
    {
      "inputs": [
        {
          "internalType": "address",
          "name": "_address",
          "type": "address"
        }
      ],
      "name": "removeProject",
      "outputs": [],
      "stateMutability": "nonpayable",
      "type": "function"
    },
    {
      "inputs": [
        {
          "internalType": "address",
          "name": "_projectAddress",
          "type": "address"
        }
      ],
      "name": "toggleVote",
      "outputs": [],
      "stateMutability": "nonpayable",
      "type": "function"
    }
  ],
  "bytecode": "0x60c06040523480156200001157600080fd5b5060405162003ad038038062003ad0833981810160405281019062000037919062000110565b3373ffffffffffffffffffffffffffffffffffffffff1660a08173ffffffffffffffffffffffffffffffffffffffff16815250508073ffffffffffffffffffffffffffffffffffffffff1660808173ffffffffffffffffffffffffffffffffffffffff16815250505062000142565b600080fd5b600073ffffffffffffffffffffffffffffffffffffffff82169050919050565b6000620000d882620000ab565b9050919050565b620000ea81620000cb565b8114620000f657600080fd5b50565b6000815190506200010a81620000df565b92915050565b600060208284031215620001295762000128620000a6565b5b60006200013984828501620000f9565b91505092915050565b60805160a05161392c620001a46000396000505060008181610404015281816109b501528181610a9101528181610c8f015281816111ce01528181611cce01528181611daa01528181611fb6015281816124d50152612573015261392c6000f3fe60806040526004361061009c5760003560e01c806370f477cd1161006457806370f477cd14610198578063a96aab58146101c1578063b9ceef22146101ea578063e4cb194114610213578063f987070514610250578063ff6f46341461028d5761009c565b80630c0ad299146100a1578063126eac43146100ca578063192e7a7b14610107578063252bcf9d14610130578063552078571461015b575b600080fd5b3480156100ad57600080fd5b506100c860048036038101906100c391906128d8565b6102a9565b005b3480156100d657600080fd5b506100f160048036038101906100ec9190612905565b610927565b6040516100fe919061295e565b60405180910390f35b34801561011357600080fd5b5061012e600480360381019061012991906128d8565b610b36565b005b34801561013c57600080fd5b50610145611045565b604051610152919061295e565b60405180910390f35b34801561016757600080fd5b50610182600480360381019061017d91906128d8565b61104f565b60405161018f9190612988565b60405180910390f35b3480156101a457600080fd5b506101bf60048036038101906101ba91906128d8565b611142565b005b3480156101cd57600080fd5b506101e860048036038101906101e39190612b15565b611599565b005b3480156101f657600080fd5b50610211600480360381019061020c91906128d8565b611c42565b005b34801561021f57600080fd5b5061023a60048036038101906102359190612905565b611f28565b6040516102479190612bcf565b60405180910390f35b34801561025c57600080fd5b50610277600480360381019061027291906128d8565b612125565b6040516102849190612d53565b60405180910390f35b6102a760048036038101906102a291906128d8565b612408565b005b806000600260008373ffffffffffffffffffffffffffffffffffffffff1673ffffffffffffffffffffffffffffffffffffffff168152602001908152602001600020600001540361032f576040517f08c379a000000000000000000000000000000000000000000000000000000000815260040161032690612df8565b60405180910390fd5b81600260008273ffffffffffffffffffffffffffffffffffffffff1673ffffffffffffffffffffffffffffffffffffffff16815260200190815260200160002060060160009054906101000a900473ffffffffffffffffffffffffffffffffffffffff1673ffffffffffffffffffffffffffffffffffffffff163373ffffffffffffffffffffffffffffffffffffffff1614610400576040517f08c379a00000000000000000000000000000000000000000000000000000000081526004016103f790612e8a565b60405180910390fd5b60007f000000000000000000000000000000000000000000000000000000000000000073ffffffffffffffffffffffffffffffffffffffff1663f8b2cb4f856040518263ffffffff1660e01b815260040161045b9190612988565b602060405180830381865afa158015610478573d6000803e3d6000fd5b505050506040513d601f19601f8201168201806040525081019061049c9190612ebf565b146104dc576040517f08c379a00000000000000000000000000000000000000000000000000000000081526004016104d390612f5e565b60405180910390fd5b60405180610120016040528060008152602001604051806020016040528060008152508152602001604051806020016040528060008152508152602001600073ffffffffffffffffffffffffffffffffffffffff1681526020016000815260200160008152602001600073ffffffffffffffffffffffffffffffffffffffff16815260200160008152602001600081525060046001600260008773ffffffffffffffffffffffffffffffffffffffff1673ffffffffffffffffffffffffffffffffffffffff168152602001908152602001600020600001546105be9190612fad565b815481106105cf576105ce612fe1565b5b90600052602060002090600902016000820151816000015560208201518160010190816105fc919061321c565b506040820151816002019081610612919061321c565b5060608201518160030160006101000a81548173ffffffffffffffffffffffffffffffffffffffff021916908373ffffffffffffffffffffffffffffffffffffffff1602179055506080820151816004015560a0820151816005015560c08201518160060160006101000a81548173ffffffffffffffffffffffffffffffffffffffff021916908373ffffffffffffffffffffffffffffffffffffffff16021790555060e082015181600701556101008201518160080155905050600160008154809291906106e0906132ee565b91905055507f198bea8a0f7bf1066c35e74dcf01b4778c8785bf9a5b357320ce795d9d5ee2b9600260008573ffffffffffffffffffffffffffffffffffffffff1673ffffffffffffffffffffffffffffffffffffffff168152602001908152602001600020600101600260008673ffffffffffffffffffffffffffffffffffffffff1673ffffffffffffffffffffffffffffffffffffffff16815260200190815260200160002060020185600260008873ffffffffffffffffffffffffffffffffffffffff1673ffffffffffffffffffffffffffffffffffffffff16815260200190815260200160002060060160009054906101000a900473ffffffffffffffffffffffffffffffffffffffff16600260008973ffffffffffffffffffffffffffffffffffffffff1673ffffffffffffffffffffffffffffffffffffffff1681526020019081526020016000206005015460405161084295949392919061339b565b60405180910390a1600260008473ffffffffffffffffffffffffffffffffffffffff1673ffffffffffffffffffffffffffffffffffffffff1681526020019081526020016000206000808201600090556001820160006108a29190612791565b6002820160006108b29190612791565b6003820160006101000a81549073ffffffffffffffffffffffffffffffffffffffff0219169055600482016000905560058201600090556006820160006101000a81549073ffffffffffffffffffffffffffffffffffffffff0219169055600782016000905560088201600090555050505050565b6000816000600260008373ffffffffffffffffffffffffffffffffffffffff1673ffffffffffffffffffffffffffffffffffffffff16815260200190815260200160002060000154036109af576040517f08c379a00000000000000000000000000000000000000000000000000000000081526004016109a690612df8565b60405180910390fd5b838360007f000000000000000000000000000000000000000000000000000000000000000073ffffffffffffffffffffffffffffffffffffffff1663ebe618ff84846040518363ffffffff1660e01b8152600401610a0e9291906133fc565b602060405180830381865afa158015610a2b573d6000803e3d6000fd5b505050506040513d601f19601f82011682018060405250810190610a4f9190612ebf565b11610a8f576040517f08c379a0000000000000000000000000000000000000000000000000000000008152600401610a8690613497565b60405180910390fd5b7f000000000000000000000000000000000000000000000000000000000000000073ffffffffffffffffffffffffffffffffffffffff1663ebe618ff87876040518363ffffffff1660e01b8152600401610aea9291906133fc565b602060405180830381865afa158015610b07573d6000803e3d6000fd5b505050506040513d601f19601f82011682018060405250810190610b2b9190612ebf565b935050505092915050565b806000600260008373ffffffffffffffffffffffffffffffffffffffff1673ffffffffffffffffffffffffffffffffffffffff1681526020019081526020016000206000015403610bbc576040517f08c379a0000000000000000000000000000000000000000000000000000000008152600401610bb390612df8565b60405180910390fd5b81600260008273ffffffffffffffffffffffffffffffffffffffff1673ffffffffffffffffffffffffffffffffffffffff16815260200190815260200160002060060160009054906101000a900473ffffffffffffffffffffffffffffffffffffffff1673ffffffffffffffffffffffffffffffffffffffff163373ffffffffffffffffffffffffffffffffffffffff1614610c8d576040517f08c379a0000000000000000000000000000000000000000000000000000000008152600401610c8490612e8a565b60405180910390fd5b7f000000000000000000000000000000000000000000000000000000000000000073ffffffffffffffffffffffffffffffffffffffff16631a1c9af484600260008773ffffffffffffffffffffffffffffffffffffffff1673ffffffffffffffffffffffffffffffffffffffff16815260200190815260200160002060060160009054906101000a900473ffffffffffffffffffffffffffffffffffffffff16600260008873ffffffffffffffffffffffffffffffffffffffff1673ffffffffffffffffffffffffffffffffffffffff16815260200190815260200160002060050154600260008973ffffffffffffffffffffffffffffffffffffffff1673ffffffffffffffffffffffffffffffffffffffff16815260200190815260200160002060040154600260008a73ffffffffffffffffffffffffffffffffffffffff1673ffffffffffffffffffffffffffffffffffffffff16815260200190815260200160002060080154600260008b73ffffffffffffffffffffffffffffffffffffffff1673ffffffffffffffffffffffffffffffffffffffff168152602001908152602001600020600701546040518763ffffffff1660e01b8152600401610e5a969594939291906134b7565b600060405180830381600087803b158015610e7457600080fd5b505af1158015610e88573d6000803e3d6000fd5b505050507f0b1b6d870cbb778cbdd728ed661bb6eda9086412e4a8554071c7947939e0e38483600260008673ffffffffffffffffffffffffffffffffffffffff1673ffffffffffffffffffffffffffffffffffffffff16815260200190815260200160002060060160009054906101000a900473ffffffffffffffffffffffffffffffffffffffff16600260008773ffffffffffffffffffffffffffffffffffffffff1673ffffffffffffffffffffffffffffffffffffffff16815260200190815260200160002060050154600260008873ffffffffffffffffffffffffffffffffffffffff1673ffffffffffffffffffffffffffffffffffffffff16815260200190815260200160002060040154600260008973ffffffffffffffffffffffffffffffffffffffff1673ffffffffffffffffffffffffffffffffffffffff16815260200190815260200160002060080154600260008a73ffffffffffffffffffffffffffffffffffffffff1673ffffffffffffffffffffffffffffffffffffffff1681526020019081526020016000206007015460405161102f969594939291906134b7565b60405180910390a1611040836102a9565b505050565b6000600154905090565b6000816000600260008373ffffffffffffffffffffffffffffffffffffffff1673ffffffffffffffffffffffffffffffffffffffff16815260200190815260200160002060000154036110d7576040517f08c379a00000000000000000000000000000000000000000000000000000000081526004016110ce90612df8565b60405180910390fd5b600260008473ffffffffffffffffffffffffffffffffffffffff1673ffffffffffffffffffffffffffffffffffffffff16815260200190815260200160002060060160009054906101000a900473ffffffffffffffffffffffffffffffffffffffff16915050919050565b806000600260008373ffffffffffffffffffffffffffffffffffffffff1673ffffffffffffffffffffffffffffffffffffffff16815260200190815260200160002060000154036111c8576040517f08c379a00000000000000000000000000000000000000000000000000000000081526004016111bf90612df8565b60405180910390fd5b338260007f000000000000000000000000000000000000000000000000000000000000000073ffffffffffffffffffffffffffffffffffffffff1663ebe618ff84846040518363ffffffff1660e01b81526004016112279291906133fc565b602060405180830381865afa158015611244573d6000803e3d6000fd5b505050506040513d601f19601f820116820180604052508101906112689190612ebf565b116112a8576040517f08c379a000000000000000000000000000000000000000000000000000000000815260040161129f90613497565b60405180910390fd5b600360003373ffffffffffffffffffffffffffffffffffffffff1673ffffffffffffffffffffffffffffffffffffffff16815260200190815260200160002060008573ffffffffffffffffffffffffffffffffffffffff1673ffffffffffffffffffffffffffffffffffffffff16815260200190815260200160002060009054906101000a900460ff1615611467576000600360003373ffffffffffffffffffffffffffffffffffffffff1673ffffffffffffffffffffffffffffffffffffffff16815260200190815260200160002060008673ffffffffffffffffffffffffffffffffffffffff1673ffffffffffffffffffffffffffffffffffffffff16815260200190815260200160002060006101000a81548160ff0219169083151502179055506001600260008673ffffffffffffffffffffffffffffffffffffffff1673ffffffffffffffffffffffffffffffffffffffff168152602001908152602001600020600801600082825461141f9190612fad565b925050819055507f0130ff0b47837190bd1305d64d338810a5ddabd794b2ea0dbb6df41de3535edc8433600060405161145a93929190613518565b60405180910390a1611593565b6001600360003373ffffffffffffffffffffffffffffffffffffffff1673ffffffffffffffffffffffffffffffffffffffff16815260200190815260200160002060008673ffffffffffffffffffffffffffffffffffffffff1673ffffffffffffffffffffffffffffffffffffffff16815260200190815260200160002060006101000a81548160ff0219169083151502179055506001600260008673ffffffffffffffffffffffffffffffffffffffff1673ffffffffffffffffffffffffffffffffffffffff168152602001908152602001600020600801600082825461154f919061354f565b925050819055507f0130ff0b47837190bd1305d64d338810a5ddabd794b2ea0dbb6df41de3535edc8433600160405161158a93929190613518565b60405180910390a15b50505050565b6000600260008473ffffffffffffffffffffffffffffffffffffffff1673ffffffffffffffffffffffffffffffffffffffff168152602001908152602001600020600001541461161e576040517f08c379a0000000000000000000000000000000000000000000000000000000008152600401611615906135f5565b60405180910390fd5b600073ffffffffffffffffffffffffffffffffffffffff168273ffffffffffffffffffffffffffffffffffffffff160361168d576040517f08c379a000000000000000000000000000000000000000000000000000000000815260040161168490613661565b60405180910390fd5b60405180610120016040528060016000546116a8919061354f565b81526020018581526020018481526020018373ffffffffffffffffffffffffffffffffffffffff1681526020016276a700426116e4919061354f565b81526020018281526020013373ffffffffffffffffffffffffffffffffffffffff168152602001600081526020016000815250600260008473ffffffffffffffffffffffffffffffffffffffff1673ffffffffffffffffffffffffffffffffffffffff168152602001908152602001600020600082015181600001556020820151816001019081611775919061321c565b50604082015181600201908161178b919061321c565b5060608201518160030160006101000a81548173ffffffffffffffffffffffffffffffffffffffff021916908373ffffffffffffffffffffffffffffffffffffffff1602179055506080820151816004015560a0820151816005015560c08201518160060160006101000a81548173ffffffffffffffffffffffffffffffffffffffff021916908373ffffffffffffffffffffffffffffffffffffffff16021790555060e0820151816007015561010082015181600801559050506004600260008473ffffffffffffffffffffffffffffffffffffffff1673ffffffffffffffffffffffffffffffffffffffff168152602001908152602001600020908060018154018082558091505060019003906000526020600020906009020160009091909190915060008201548160000155600182018160010190816118ce9190613697565b50600282018160020190816118e39190613697565b506003820160009054906101000a900473ffffffffffffffffffffffffffffffffffffffff168160030160006101000a81548173ffffffffffffffffffffffffffffffffffffffff021916908373ffffffffffffffffffffffffffffffffffffffff16021790555060048201548160040155600582015481600501556006820160009054906101000a900473ffffffffffffffffffffffffffffffffffffffff168160060160006101000a81548173ffffffffffffffffffffffffffffffffffffffff021916908373ffffffffffffffffffffffffffffffffffffffff160217905550600782015481600701556008820154816008015550506000808154809291906119ee9061377f565b919050555060016000815480929190611a069061377f565b91905055507f58f73aafa87d9b04667754b00af7725ad377ed0c56a41f040c7b70edb6e618e3600260008473ffffffffffffffffffffffffffffffffffffffff1673ffffffffffffffffffffffffffffffffffffffff168152602001908152602001600020600101600260008573ffffffffffffffffffffffffffffffffffffffff1673ffffffffffffffffffffffffffffffffffffffff16815260200190815260200160002060020184600260008773ffffffffffffffffffffffffffffffffffffffff1673ffffffffffffffffffffffffffffffffffffffff16815260200190815260200160002060040154600260008873ffffffffffffffffffffffffffffffffffffffff1673ffffffffffffffffffffffffffffffffffffffff16815260200190815260200160002060050154600260008973ffffffffffffffffffffffffffffffffffffffff1673ffffffffffffffffffffffffffffffffffffffff16815260200190815260200160002060060160009054906101000a900473ffffffffffffffffffffffffffffffffffffffff16600260008a73ffffffffffffffffffffffffffffffffffffffff1673ffffffffffffffffffffffffffffffffffffffff16815260200190815260200160002060070154600260008b73ffffffffffffffffffffffffffffffffffffffff1673ffffffffffffffffffffffffffffffffffffffff16815260200190815260200160002060080154604051611c349897969594939291906137c7565b60405180910390a150505050565b806000600260008373ffffffffffffffffffffffffffffffffffffffff1673ffffffffffffffffffffffffffffffffffffffff1681526020019081526020016000206000015403611cc8576040517f08c379a0000000000000000000000000000000000000000000000000000000008152600401611cbf90612df8565b60405180910390fd5b338260007f000000000000000000000000000000000000000000000000000000000000000073ffffffffffffffffffffffffffffffffffffffff1663ebe618ff84846040518363ffffffff1660e01b8152600401611d279291906133fc565b602060405180830381865afa158015611d44573d6000803e3d6000fd5b505050506040513d601f19601f82011682018060405250810190611d689190612ebf565b11611da8576040517f08c379a0000000000000000000000000000000000000000000000000000000008152600401611d9f90613497565b60405180910390fd5b7f000000000000000000000000000000000000000000000000000000000000000073ffffffffffffffffffffffffffffffffffffffff16635e30b8a633866040518363ffffffff1660e01b8152600401611e039291906133fc565b600060405180830381600087803b158015611e1d57600080fd5b505af1158015611e31573d6000803e3d6000fd5b505050506001600260008673ffffffffffffffffffffffffffffffffffffffff1673ffffffffffffffffffffffffffffffffffffffff1681526020019081526020016000206007016000828254611e889190612fad565b925050819055506001600260008673ffffffffffffffffffffffffffffffffffffffff1673ffffffffffffffffffffffffffffffffffffffff1681526020019081526020016000206008016000828254611ee29190612fad565b925050819055507f9abdc7a8f75a6b2dced25deba1234cb7e899aa3bad5fbd80da48f6877bf986888433604051611f1a9291906133fc565b60405180910390a150505050565b6000816000600260008373ffffffffffffffffffffffffffffffffffffffff1673ffffffffffffffffffffffffffffffffffffffff1681526020019081526020016000206000015403611fb0576040517f08c379a0000000000000000000000000000000000000000000000000000000008152600401611fa790612df8565b60405180910390fd5b838360007f000000000000000000000000000000000000000000000000000000000000000073ffffffffffffffffffffffffffffffffffffffff1663ebe618ff84846040518363ffffffff1660e01b815260040161200f9291906133fc565b602060405180830381865afa15801561202c573d6000803e3d6000fd5b505050506040513d601f19601f820116820180604052508101906120509190612ebf565b11612090576040517f08c379a000000000000000000000000000000000000000000000000000000000815260040161208790613497565b60405180910390fd5b600360008773ffffffffffffffffffffffffffffffffffffffff1673ffffffffffffffffffffffffffffffffffffffff16815260200190815260200160002060008673ffffffffffffffffffffffffffffffffffffffff1673ffffffffffffffffffffffffffffffffffffffff16815260200190815260200160002060009054906101000a900460ff16935050505092915050565b61212d6127d1565b816000600260008373ffffffffffffffffffffffffffffffffffffffff1673ffffffffffffffffffffffffffffffffffffffff16815260200190815260200160002060000154036121b3576040517f08c379a00000000000000000000000000000000000000000000000000000000081526004016121aa90612df8565b60405180910390fd5b600260008473ffffffffffffffffffffffffffffffffffffffff1673ffffffffffffffffffffffffffffffffffffffff16815260200190815260200160002060405180610120016040529081600082015481526020016001820180546122189061303f565b80601f01602080910402602001604051908101604052809291908181526020018280546122449061303f565b80156122915780601f1061226657610100808354040283529160200191612291565b820191906000526020600020905b81548152906001019060200180831161227457829003601f168201915b505050505081526020016002820180546122aa9061303f565b80601f01602080910402602001604051908101604052809291908181526020018280546122d69061303f565b80156123235780601f106122f857610100808354040283529160200191612323565b820191906000526020600020905b81548152906001019060200180831161230657829003601f168201915b505050505081526020016003820160009054906101000a900473ffffffffffffffffffffffffffffffffffffffff1673ffffffffffffffffffffffffffffffffffffffff1673ffffffffffffffffffffffffffffffffffffffff16815260200160048201548152602001600582015481526020016006820160009054906101000a900473ffffffffffffffffffffffffffffffffffffffff1673ffffffffffffffffffffffffffffffffffffffff1673ffffffffffffffffffffffffffffffffffffffff16815260200160078201548152602001600882015481525050915050919050565b806000600260008373ffffffffffffffffffffffffffffffffffffffff1673ffffffffffffffffffffffffffffffffffffffff168152602001908152602001600020600001540361248e576040517f08c379a000000000000000000000000000000000000000000000000000000000815260040161248590612df8565b60405180910390fd5b600034116124d1576040517f08c379a00000000000000000000000000000000000000000000000000000000081526004016124c89061389f565b60405180910390fd5b60007f000000000000000000000000000000000000000000000000000000000000000073ffffffffffffffffffffffffffffffffffffffff1663ebe618ff33856040518363ffffffff1660e01b815260040161252e9291906133fc565b602060405180830381865afa15801561254b573d6000803e3d6000fd5b505050506040513d601f19601f8201168201806040525081019061256f9190612ebf565b90507f000000000000000000000000000000000000000000000000000000000000000073ffffffffffffffffffffffffffffffffffffffff166307db37e73433866040518463ffffffff1660e01b81526004016125cd9291906133fc565b6000604051808303818588803b1580156125e657600080fd5b505af11580156125fa573d6000803e3d6000fd5b505050505060008103612751576001600260008573ffffffffffffffffffffffffffffffffffffffff1673ffffffffffffffffffffffffffffffffffffffff168152602001908152602001600020600701600082825461265a919061354f565b925050819055506001600260008573ffffffffffffffffffffffffffffffffffffffff1673ffffffffffffffffffffffffffffffffffffffff16815260200190815260200160002060080160008282546126b4919061354f565b925050819055506001600360003373ffffffffffffffffffffffffffffffffffffffff1673ffffffffffffffffffffffffffffffffffffffff16815260200190815260200160002060008573ffffffffffffffffffffffffffffffffffffffff1673ffffffffffffffffffffffffffffffffffffffff16815260200190815260200160002060006101000a81548160ff0219169083151502179055505b7f5f4784839bf94cfc8d222de61d8f42fdf916ae9ab3c45ce15362117cc1c9bf0a833334604051612784939291906138bf565b60405180910390a1505050565b50805461279d9061303f565b6000825580601f106127af57506127ce565b601f0160209004906000526020600020908101906127cd9190612849565b5b50565b604051806101200160405280600081526020016060815260200160608152602001600073ffffffffffffffffffffffffffffffffffffffff1681526020016000815260200160008152602001600073ffffffffffffffffffffffffffffffffffffffff16815260200160008152602001600081525090565b5b8082111561286257600081600090555060010161284a565b5090565b6000604051905090565b600080fd5b600080fd5b600073ffffffffffffffffffffffffffffffffffffffff82169050919050565b60006128a58261287a565b9050919050565b6128b58161289a565b81146128c057600080fd5b50565b6000813590506128d2816128ac565b92915050565b6000602082840312156128ee576128ed612870565b5b60006128fc848285016128c3565b91505092915050565b6000806040838503121561291c5761291b612870565b5b600061292a858286016128c3565b925050602061293b858286016128c3565b9150509250929050565b6000819050919050565b61295881612945565b82525050565b6000602082019050612973600083018461294f565b92915050565b6129828161289a565b82525050565b600060208201905061299d6000830184612979565b92915050565b600080fd5b600080fd5b6000601f19601f8301169050919050565b7f4e487b7100000000000000000000000000000000000000000000000000000000600052604160045260246000fd5b6129f6826129ad565b810181811067ffffffffffffffff82111715612a1557612a146129be565b5b80604052505050565b6000612a28612866565b9050612a3482826129ed565b919050565b600067ffffffffffffffff821115612a5457612a536129be565b5b612a5d826129ad565b9050602081019050919050565b82818337600083830152505050565b6000612a8c612a8784612a39565b612a1e565b905082815260208101848484011115612aa857612aa76129a8565b5b612ab3848285612a6a565b509392505050565b600082601f830112612ad057612acf6129a3565b5b8135612ae0848260208601612a79565b91505092915050565b612af281612945565b8114612afd57600080fd5b50565b600081359050612b0f81612ae9565b92915050565b60008060008060808587031215612b2f57612b2e612870565b5b600085013567ffffffffffffffff811115612b4d57612b4c612875565b5b612b5987828801612abb565b945050602085013567ffffffffffffffff811115612b7a57612b79612875565b5b612b8687828801612abb565b9350506040612b97878288016128c3565b9250506060612ba887828801612b00565b91505092959194509250565b60008115159050919050565b612bc981612bb4565b82525050565b6000602082019050612be46000830184612bc0565b92915050565b612bf381612945565b82525050565b600081519050919050565b600082825260208201905092915050565b60005b83811015612c33578082015181840152602081019050612c18565b60008484015250505050565b6000612c4a82612bf9565b612c548185612c04565b9350612c64818560208601612c15565b612c6d816129ad565b840191505092915050565b612c818161289a565b82525050565b600061012083016000830151612ca06000860182612bea565b5060208301518482036020860152612cb88282612c3f565b91505060408301518482036040860152612cd28282612c3f565b9150506060830151612ce76060860182612c78565b506080830151612cfa6080860182612bea565b5060a0830151612d0d60a0860182612bea565b5060c0830151612d2060c0860182612c78565b5060e0830151612d3360e0860182612bea565b50610100830151612d48610100860182612bea565b508091505092915050565b60006020820190508181036000830152612d6d8184612c87565b905092915050565b600082825260208201905092915050565b7f4e6f2070726f6a65637420657869737473207769746820676976656e2061646460008201527f7265737300000000000000000000000000000000000000000000000000000000602082015250565b6000612de2602483612d75565b9150612ded82612d86565b604082019050919050565b60006020820190508181036000830152612e1181612dd5565b9050919050565b7f4f6e6c79204f776e6572206f66207468652050726f6a6563742063616e20636160008201527f6c6c207468697300000000000000000000000000000000000000000000000000602082015250565b6000612e74602783612d75565b9150612e7f82612e18565b604082019050919050565b60006020820190508181036000830152612ea381612e67565b9050919050565b600081519050612eb981612ae9565b92915050565b600060208284031215612ed557612ed4612870565b5b6000612ee384828501612eaa565b91505092915050565b7f50726f6a6563742043616e27742062652072656d6f7665642e2046756e64732060008201527f61726520696e7665737465642062792070656f706c652e000000000000000000602082015250565b6000612f48603783612d75565b9150612f5382612eec565b604082019050919050565b60006020820190508181036000830152612f7781612f3b565b9050919050565b7f4e487b7100000000000000000000000000000000000000000000000000000000600052601160045260246000fd5b6000612fb882612945565b9150612fc383612945565b9250828203905081811115612fdb57612fda612f7e565b5b92915050565b7f4e487b7100000000000000000000000000000000000000000000000000000000600052603260045260246000fd5b7f4e487b7100000000000000000000000000000000000000000000000000000000600052602260045260246000fd5b6000600282049050600182168061305757607f821691505b60208210810361306a57613069613010565b5b50919050565b60008190508160005260206000209050919050565b60006020601f8301049050919050565b600082821b905092915050565b6000600883026130d27fffffffffffffffffffffffffffffffffffffffffffffffffffffffffffffffff82613095565b6130dc8683613095565b95508019841693508086168417925050509392505050565b6000819050919050565b600061311961311461310f84612945565b6130f4565b612945565b9050919050565b6000819050919050565b613133836130fe565b61314761313f82613120565b8484546130a2565b825550505050565b600090565b61315c61314f565b61316781848461312a565b505050565b5b8181101561318b57613180600082613154565b60018101905061316d565b5050565b601f8211156131d0576131a181613070565b6131aa84613085565b810160208510156131b9578190505b6131cd6131c585613085565b83018261316c565b50505b505050565b600082821c905092915050565b60006131f3600019846008026131d5565b1980831691505092915050565b600061320c83836131e2565b9150826002028217905092915050565b61322582612bf9565b67ffffffffffffffff81111561323e5761323d6129be565b5b613248825461303f565b61325382828561318f565b600060209050601f8311600181146132865760008415613274578287015190505b61327e8582613200565b8655506132e6565b601f19841661329486613070565b60005b828110156132bc57848901518255600182019150602085019450602081019050613297565b868310156132d957848901516132d5601f8916826131e2565b8355505b6001600288020188555050505b505050505050565b60006132f982612945565b91506000820361330c5761330b612f7e565b5b600182039050919050565b600081546133248161303f565b61332e8186612d75565b94506001821660008114613349576001811461335f57613392565b60ff198316865281151560200286019350613392565b61336885613070565b60005b8381101561338a5781548189015260018201915060208101905061336b565b808801955050505b50505092915050565b600060a08201905081810360008301526133b58188613317565b905081810360208301526133c98187613317565b90506133d86040830186612979565b6133e56060830185612979565b6133f2608083018461294f565b9695505050505050565b60006040820190506134116000830185612979565b61341e6020830184612979565b9392505050565b7f596f752068617665206e6f7420636f6e747269627574656420746f207468697360008201527f2070726f6a656374000000000000000000000000000000000000000000000000602082015250565b6000613481602883612d75565b915061348c82613425565b604082019050919050565b600060208201905081810360008301526134b081613474565b9050919050565b600060c0820190506134cc6000830189612979565b6134d96020830188612979565b6134e6604083018761294f565b6134f3606083018661294f565b613500608083018561294f565b61350d60a083018461294f565b979650505050505050565b600060608201905061352d6000830186612979565b61353a6020830185612979565b6135476040830184612bc0565b949350505050565b600061355a82612945565b915061356583612945565b925082820190508082111561357d5761357c612f7e565b5b92915050565b7f4164647265737320616c7265616479206265696e67207573656420627920616e60008201527f6f746865722050726f6a65637400000000000000000000000000000000000000602082015250565b60006135df602d83612d75565b91506135ea82613583565b604082019050919050565b6000602082019050818103600083015261360e816135d2565b9050919050565b7f496e76616c696420616464726573730000000000000000000000000000000000600082015250565b600061364b600f83612d75565b915061365682613615565b602082019050919050565b6000602082019050818103600083015261367a8161363e565b9050919050565b6000815490506136908161303f565b9050919050565b8181036136a557505061377d565b6136ae82613681565b67ffffffffffffffff8111156136c7576136c66129be565b5b6136d1825461303f565b6136dc82828561318f565b6000601f83116001811461370b57600084156136f9578287015490505b6137038582613200565b865550613776565b601f19841661371987613070565b965061372486613070565b60005b8281101561374c57848901548255600182019150600185019450602081019050613727565b868310156137695784890154613765601f8916826131e2565b8355505b6001600288020188555050505b5050505050505b565b600061378a82612945565b91507fffffffffffffffffffffffffffffffffffffffffffffffffffffffffffffffff82036137bc576137bb612f7e565b5b600182019050919050565b60006101008201905081810360008301526137e2818b613317565b905081810360208301526137f6818a613317565b90506138056040830189612979565b613812606083018861294f565b61381f608083018761294f565b61382c60a0830186612979565b61383960c083018561294f565b61384660e083018461294f565b9998505050505050505050565b7f416d6f756e742073686f756c642062652067726561746572207468616e203000600082015250565b6000613889601f83612d75565b915061389482613853565b602082019050919050565b600060208201905081810360008301526138b88161387c565b9050919050565b60006060820190506138d46000830186612979565b6138e16020830185612979565b6138ee604083018461294f565b94935050505056fea2646970667358221220dfe33892be49919817186552b41dea4dc5b1f1abc81b845e9dc1cfae2e91b51464736f6c63430008110033",
  "linkReferences": {},
  "deployedLinkReferences": {}
}