{
  "_format": "hh-sol-artifact-1",
  "contractName": "Project",
  "sourceName": "contracts/Project.sol",
  "abi": [
    {
      "inputs": [
        {
          "internalType": "address",
          "name": "_fundContractAddress",
          "type": "address"
        }
      ],
      "stateMutability": "nonpayable",
      "type": "constructor"
    },
    {
      "anonymous": false,
      "inputs": [
        {
          "indexed": false,
          "internalType": "address",
          "name": "_projectAddress",
          "type": "address"
        },
        {
          "indexed": false,
          "internalType": "address",
          "name": "_contributorAddress",
          "type": "address"
        },
        {
          "indexed": false,
          "internalType": "uint256",
          "name": "_amount",
          "type": "uint256"
        }
      ],
      "name": "contributionEvent",
      "type": "event"
    },
    {
      "anonymous": false,
      "inputs": [
        {
          "indexed": false,
          "internalType": "string",
          "name": "_name",
          "type": "string"
        },
        {
          "indexed": false,
          "internalType": "string",
          "name": "_description",
          "type": "string"
        },
        {
          "indexed": false,
          "internalType": "address",
          "name": "_projectAddress",
          "type": "address"
        },
        {
          "indexed": false,
          "internalType": "uint256",
          "name": "_releaseTime",
          "type": "uint256"
        },
        {
          "indexed": false,
          "internalType": "uint256",
          "name": "_target",
          "type": "uint256"
        },
        {
          "indexed": false,
          "internalType": "address",
          "name": "_owner",
          "type": "address"
        },
        {
          "indexed": false,
          "internalType": "uint256",
          "name": "_totalInvestors",
          "type": "uint256"
        },
        {
          "indexed": false,
          "internalType": "uint256",
          "name": "_votes",
          "type": "uint256"
        }
      ],
      "name": "projectCreated",
      "type": "event"
    },
    {
      "anonymous": false,
      "inputs": [
        {
          "indexed": false,
          "internalType": "string",
          "name": "_name",
          "type": "string"
        },
        {
          "indexed": false,
          "internalType": "string",
          "name": "_description",
          "type": "string"
        },
        {
          "indexed": false,
          "internalType": "address",
          "name": "_projectAddress",
          "type": "address"
        },
        {
          "indexed": false,
          "internalType": "address",
          "name": "_owner",
          "type": "address"
        },
        {
          "indexed": false,
          "internalType": "uint256",
          "name": "_target",
          "type": "uint256"
        }
      ],
      "name": "projectRemoved",
      "type": "event"
    },
    {
      "anonymous": false,
      "inputs": [
        {
          "indexed": false,
          "internalType": "address",
          "name": "_projectAddress",
          "type": "address"
        },
        {
          "indexed": false,
          "internalType": "address",
          "name": "_contrinutorAddress",
          "type": "address"
        }
      ],
      "name": "refundContributionEvent",
      "type": "event"
    },
    {
      "anonymous": false,
      "inputs": [
        {
          "indexed": false,
          "internalType": "address",
          "name": "_projectAddress",
          "type": "address"
        },
        {
          "indexed": false,
          "internalType": "address",
          "name": "_owner",
          "type": "address"
        },
        {
          "indexed": false,
          "internalType": "uint256",
          "name": "_target",
          "type": "uint256"
        },
        {
          "indexed": false,
          "internalType": "uint256",
          "name": "_releaseTime",
          "type": "uint256"
        },
        {
          "indexed": false,
          "internalType": "uint256",
          "name": "_votes",
          "type": "uint256"
        },
        {
          "indexed": false,
          "internalType": "uint256",
          "name": "_totalInvestors",
          "type": "uint256"
        }
      ],
      "name": "releaseFundsEvent",
      "type": "event"
    },
    {
      "anonymous": false,
      "inputs": [
        {
          "indexed": false,
          "internalType": "address",
          "name": "_projectAddress",
          "type": "address"
        },
        {
          "indexed": false,
          "internalType": "address",
          "name": "_contributorAddress",
          "type": "address"
        },
        {
          "indexed": false,
          "internalType": "bool",
          "name": "_toggle",
          "type": "bool"
        }
      ],
      "name": "voteToggle",
      "type": "event"
    },
    {
      "inputs": [
        {
          "internalType": "string",
          "name": "_name",
          "type": "string"
        },
        {
          "internalType": "string",
          "name": "_description",
          "type": "string"
        },
        {
          "internalType": "address",
          "name": "_address",
          "type": "address"
        },
        {
          "internalType": "uint256",
          "name": "_target",
          "type": "uint256"
        }
      ],
      "name": "addProject",
      "outputs": [],
      "stateMutability": "nonpayable",
      "type": "function"
    },
    {
      "inputs": [
        {
          "internalType": "address",
          "name": "_projectAddress",
          "type": "address"
        }
      ],
      "name": "contributeToProject",
      "outputs": [],
      "stateMutability": "payable",
      "type": "function"
    },
    {
      "inputs": [
        {
          "internalType": "address",
          "name": "_contributorAddress",
          "type": "address"
        },
        {
          "internalType": "address",
          "name": "_projectAddress",
          "type": "address"
        }
      ],
      "name": "contributionInfo",
      "outputs": [
        {
          "internalType": "bool",
          "name": "",
          "type": "bool"
        }
      ],
      "stateMutability": "view",
      "type": "function"
    },
    {
      "inputs": [
        {
          "internalType": "address",
          "name": "_contributorAddress",
          "type": "address"
        },
        {
          "internalType": "address",
          "name": "_projectAddress",
          "type": "address"
        }
      ],
      "name": "getContribution",
      "outputs": [
        {
          "internalType": "uint256",
          "name": "",
          "type": "uint256"
        }
      ],
      "stateMutability": "view",
      "type": "function"
    },
    {
      "inputs": [
        {
          "internalType": "address",
          "name": "_address",
          "type": "address"
        }
      ],
      "name": "getOwnerofProject",
      "outputs": [
        {
          "internalType": "address",
          "name": "",
          "type": "address"
        }
      ],
      "stateMutability": "view",
      "type": "function"
    },
    {
      "inputs": [
        {
          "internalType": "address",
          "name": "_address",
          "type": "address"
        }
      ],
      "name": "getProject",
      "outputs": [
        {
          "components": [
            {
              "internalType": "uint256",
              "name": "projectId",
              "type": "uint256"
            },
            {
              "internalType": "string",
              "name": "name",
              "type": "string"
            },
            {
              "internalType": "string",
              "name": "description",
              "type": "string"
            },
            {
              "internalType": "address",
              "name": "projectAddress",
              "type": "address"
            },
            {
              "internalType": "uint256",
              "name": "releaseTime",
              "type": "uint256"
            },
            {
              "internalType": "uint256",
              "name": "target",
              "type": "uint256"
            },
            {
              "internalType": "address",
              "name": "owner",
              "type": "address"
            },
            {
              "internalType": "uint256",
              "name": "totalInvestors",
              "type": "uint256"
            },
            {
              "internalType": "uint256",
              "name": "votes",
              "type": "uint256"
            }
          ],
          "internalType": "struct Project.project",
          "name": "",
          "type": "tuple"
        }
      ],
      "stateMutability": "view",
      "type": "function"
    },
    {
      "inputs": [
        {
          "internalType": "address",
          "name": "_projectAddress",
          "type": "address"
        }
      ],
      "name": "getTotalAmountInvested",
      "outputs": [
        {
          "internalType": "uint256",
          "name": "",
          "type": "uint256"
        }
      ],
      "stateMutability": "view",
      "type": "function"
    },
    {
      "inputs": [],
      "name": "getTotalNumberofProjects",
      "outputs": [
        {
          "internalType": "uint256",
          "name": "",
          "type": "uint256"
        }
      ],
      "stateMutability": "view",
      "type": "function"
    },
    {
      "inputs": [
        {
          "internalType": "address",
          "name": "_contributor",
          "type": "address"
        },
        {
          "internalType": "address",
          "name": "_projectAddress",
          "type": "address"
        }
      ],
      "name": "getVotingInfo",
      "outputs": [
        {
          "internalType": "bool",
          "name": "",
          "type": "bool"
        }
      ],
      "stateMutability": "view",
      "type": "function"
    },
    {
      "inputs": [
        {
          "internalType": "address",
          "name": "_projectAddress",
          "type": "address"
        }
      ],
      "name": "refundContribution",
      "outputs": [],
      "stateMutability": "nonpayable",
      "type": "function"
    },
    {
      "inputs": [
        {
          "internalType": "address",
          "name": "_projectAddress",
          "type": "address"
        }
      ],
      "name": "releaseFunds",
      "outputs": [],
      "stateMutability": "nonpayable",
      "type": "function"
    },
    {
      "inputs": [
        {
          "internalType": "address",
          "name": "_address",
          "type": "address"
        }
      ],
      "name": "removeProject",
      "outputs": [],
      "stateMutability": "nonpayable",
      "type": "function"
    },
    {
      "inputs": [
        {
          "internalType": "address",
          "name": "_projectAddress",
          "type": "address"
        }
      ],
      "name": "toggleVote",
      "outputs": [],
      "stateMutability": "nonpayable",
      "type": "function"
    }
  ],
  "bytecode": "0x60c06040523480156200001157600080fd5b5060405162003f0938038062003f09833981810160405281019062000037919062000110565b3373ffffffffffffffffffffffffffffffffffffffff1660a08173ffffffffffffffffffffffffffffffffffffffff16815250508073ffffffffffffffffffffffffffffffffffffffff1660808173ffffffffffffffffffffffffffffffffffffffff16815250505062000142565b600080fd5b600073ffffffffffffffffffffffffffffffffffffffff82169050919050565b6000620000d882620000ab565b9050919050565b620000ea81620000cb565b8114620000f657600080fd5b50565b6000815190506200010a81620000df565b92915050565b600060208284031215620001295762000128620000a6565b5b60006200013984828501620000f9565b91505092915050565b60805160a051613d57620001b260003960005050600081816103d3015281816105ce01528181610b7f01528181610c5b01528181610e59015281816113980152818161185c01528181612034015281816121100152818161231c0152818161283b01526128d90152613d576000f3fe6080604052600436106100c25760003560e01c806370f477cd1161007f578063b9ceef2211610059578063b9ceef221461028a578063e4cb1941146102b3578063f9870705146102f0578063ff6f46341461032d576100c2565b806370f477cd146101fb5780637258c07414610224578063a96aab5814610261576100c2565b80630189cf50146100c75780630c0ad29914610104578063126eac431461012d578063192e7a7b1461016a578063252bcf9d1461019357806355207857146101be575b600080fd5b3480156100d357600080fd5b506100ee60048036038101906100e99190612c3e565b610349565b6040516100fb9190612c84565b60405180910390f35b34801561011057600080fd5b5061012b60048036038101906101269190612c3e565b610473565b005b34801561013957600080fd5b50610154600480360381019061014f9190612c9f565b610af1565b6040516101619190612c84565b60405180910390f35b34801561017657600080fd5b50610191600480360381019061018c9190612c3e565b610d00565b005b34801561019f57600080fd5b506101a861120f565b6040516101b59190612c84565b60405180910390f35b3480156101ca57600080fd5b506101e560048036038101906101e09190612c3e565b611219565b6040516101f29190612cee565b60405180910390f35b34801561020757600080fd5b50610222600480360381019061021d9190612c3e565b61130c565b005b34801561023057600080fd5b5061024b60048036038101906102469190612c9f565b611763565b6040516102589190612d24565b60405180910390f35b34801561026d57600080fd5b5061028860048036038101906102839190612eb1565b6118ff565b005b34801561029657600080fd5b506102b160048036038101906102ac9190612c3e565b611fa8565b005b3480156102bf57600080fd5b506102da60048036038101906102d59190612c9f565b61228e565b6040516102e79190612d24565b60405180910390f35b3480156102fc57600080fd5b5061031760048036038101906103129190612c3e565b61248b565b60405161032491906130b9565b60405180910390f35b61034760048036038101906103429190612c3e565b61276e565b005b6000816000600260008373ffffffffffffffffffffffffffffffffffffffff1673ffffffffffffffffffffffffffffffffffffffff16815260200190815260200160002060000154036103d1576040517f08c379a00000000000000000000000000000000000000000000000000000000081526004016103c89061315e565b60405180910390fd5b7f000000000000000000000000000000000000000000000000000000000000000073ffffffffffffffffffffffffffffffffffffffff1663f8b2cb4f846040518263ffffffff1660e01b815260040161042a9190612cee565b602060405180830381865afa158015610447573d6000803e3d6000fd5b505050506040513d601f19601f8201168201806040525081019061046b9190613193565b915050919050565b806000600260008373ffffffffffffffffffffffffffffffffffffffff1673ffffffffffffffffffffffffffffffffffffffff16815260200190815260200160002060000154036104f9576040517f08c379a00000000000000000000000000000000000000000000000000000000081526004016104f09061315e565b60405180910390fd5b81600260008273ffffffffffffffffffffffffffffffffffffffff1673ffffffffffffffffffffffffffffffffffffffff16815260200190815260200160002060060160009054906101000a900473ffffffffffffffffffffffffffffffffffffffff1673ffffffffffffffffffffffffffffffffffffffff163373ffffffffffffffffffffffffffffffffffffffff16146105ca576040517f08c379a00000000000000000000000000000000000000000000000000000000081526004016105c190613232565b60405180910390fd5b60007f000000000000000000000000000000000000000000000000000000000000000073ffffffffffffffffffffffffffffffffffffffff1663f8b2cb4f856040518263ffffffff1660e01b81526004016106259190612cee565b602060405180830381865afa158015610642573d6000803e3d6000fd5b505050506040513d601f19601f820116820180604052508101906106669190613193565b146106a6576040517f08c379a000000000000000000000000000000000000000000000000000000000815260040161069d906132c4565b60405180910390fd5b60405180610120016040528060008152602001604051806020016040528060008152508152602001604051806020016040528060008152508152602001600073ffffffffffffffffffffffffffffffffffffffff1681526020016000815260200160008152602001600073ffffffffffffffffffffffffffffffffffffffff16815260200160008152602001600081525060046001600260008773ffffffffffffffffffffffffffffffffffffffff1673ffffffffffffffffffffffffffffffffffffffff168152602001908152602001600020600001546107889190613313565b8154811061079957610798613347565b5b90600052602060002090600902016000820151816000015560208201518160010190816107c69190613582565b5060408201518160020190816107dc9190613582565b5060608201518160030160006101000a81548173ffffffffffffffffffffffffffffffffffffffff021916908373ffffffffffffffffffffffffffffffffffffffff1602179055506080820151816004015560a0820151816005015560c08201518160060160006101000a81548173ffffffffffffffffffffffffffffffffffffffff021916908373ffffffffffffffffffffffffffffffffffffffff16021790555060e082015181600701556101008201518160080155905050600160008154809291906108aa90613654565b91905055507f198bea8a0f7bf1066c35e74dcf01b4778c8785bf9a5b357320ce795d9d5ee2b9600260008573ffffffffffffffffffffffffffffffffffffffff1673ffffffffffffffffffffffffffffffffffffffff168152602001908152602001600020600101600260008673ffffffffffffffffffffffffffffffffffffffff1673ffffffffffffffffffffffffffffffffffffffff16815260200190815260200160002060020185600260008873ffffffffffffffffffffffffffffffffffffffff1673ffffffffffffffffffffffffffffffffffffffff16815260200190815260200160002060060160009054906101000a900473ffffffffffffffffffffffffffffffffffffffff16600260008973ffffffffffffffffffffffffffffffffffffffff1673ffffffffffffffffffffffffffffffffffffffff16815260200190815260200160002060050154604051610a0c959493929190613701565b60405180910390a1600260008473ffffffffffffffffffffffffffffffffffffffff1673ffffffffffffffffffffffffffffffffffffffff168152602001908152602001600020600080820160009055600182016000610a6c9190612af7565b600282016000610a7c9190612af7565b6003820160006101000a81549073ffffffffffffffffffffffffffffffffffffffff0219169055600482016000905560058201600090556006820160006101000a81549073ffffffffffffffffffffffffffffffffffffffff0219169055600782016000905560088201600090555050505050565b6000816000600260008373ffffffffffffffffffffffffffffffffffffffff1673ffffffffffffffffffffffffffffffffffffffff1681526020019081526020016000206000015403610b79576040517f08c379a0000000000000000000000000000000000000000000000000000000008152600401610b709061315e565b60405180910390fd5b838360007f000000000000000000000000000000000000000000000000000000000000000073ffffffffffffffffffffffffffffffffffffffff1663ebe618ff84846040518363ffffffff1660e01b8152600401610bd8929190613762565b602060405180830381865afa158015610bf5573d6000803e3d6000fd5b505050506040513d601f19601f82011682018060405250810190610c199190613193565b11610c59576040517f08c379a0000000000000000000000000000000000000000000000000000000008152600401610c50906137fd565b60405180910390fd5b7f000000000000000000000000000000000000000000000000000000000000000073ffffffffffffffffffffffffffffffffffffffff1663ebe618ff87876040518363ffffffff1660e01b8152600401610cb4929190613762565b602060405180830381865afa158015610cd1573d6000803e3d6000fd5b505050506040513d601f19601f82011682018060405250810190610cf59190613193565b935050505092915050565b806000600260008373ffffffffffffffffffffffffffffffffffffffff1673ffffffffffffffffffffffffffffffffffffffff1681526020019081526020016000206000015403610d86576040517f08c379a0000000000000000000000000000000000000000000000000000000008152600401610d7d9061315e565b60405180910390fd5b81600260008273ffffffffffffffffffffffffffffffffffffffff1673ffffffffffffffffffffffffffffffffffffffff16815260200190815260200160002060060160009054906101000a900473ffffffffffffffffffffffffffffffffffffffff1673ffffffffffffffffffffffffffffffffffffffff163373ffffffffffffffffffffffffffffffffffffffff1614610e57576040517f08c379a0000000000000000000000000000000000000000000000000000000008152600401610e4e90613232565b60405180910390fd5b7f000000000000000000000000000000000000000000000000000000000000000073ffffffffffffffffffffffffffffffffffffffff16631a1c9af484600260008773ffffffffffffffffffffffffffffffffffffffff1673ffffffffffffffffffffffffffffffffffffffff16815260200190815260200160002060060160009054906101000a900473ffffffffffffffffffffffffffffffffffffffff16600260008873ffffffffffffffffffffffffffffffffffffffff1673ffffffffffffffffffffffffffffffffffffffff16815260200190815260200160002060050154600260008973ffffffffffffffffffffffffffffffffffffffff1673ffffffffffffffffffffffffffffffffffffffff16815260200190815260200160002060040154600260008a73ffffffffffffffffffffffffffffffffffffffff1673ffffffffffffffffffffffffffffffffffffffff16815260200190815260200160002060080154600260008b73ffffffffffffffffffffffffffffffffffffffff1673ffffffffffffffffffffffffffffffffffffffff168152602001908152602001600020600701546040518763ffffffff1660e01b81526004016110249695949392919061381d565b600060405180830381600087803b15801561103e57600080fd5b505af1158015611052573d6000803e3d6000fd5b505050507f0b1b6d870cbb778cbdd728ed661bb6eda9086412e4a8554071c7947939e0e38483600260008673ffffffffffffffffffffffffffffffffffffffff1673ffffffffffffffffffffffffffffffffffffffff16815260200190815260200160002060060160009054906101000a900473ffffffffffffffffffffffffffffffffffffffff16600260008773ffffffffffffffffffffffffffffffffffffffff1673ffffffffffffffffffffffffffffffffffffffff16815260200190815260200160002060050154600260008873ffffffffffffffffffffffffffffffffffffffff1673ffffffffffffffffffffffffffffffffffffffff16815260200190815260200160002060040154600260008973ffffffffffffffffffffffffffffffffffffffff1673ffffffffffffffffffffffffffffffffffffffff16815260200190815260200160002060080154600260008a73ffffffffffffffffffffffffffffffffffffffff1673ffffffffffffffffffffffffffffffffffffffff168152602001908152602001600020600701546040516111f99695949392919061381d565b60405180910390a161120a83610473565b505050565b6000600154905090565b6000816000600260008373ffffffffffffffffffffffffffffffffffffffff1673ffffffffffffffffffffffffffffffffffffffff16815260200190815260200160002060000154036112a1576040517f08c379a00000000000000000000000000000000000000000000000000000000081526004016112989061315e565b60405180910390fd5b600260008473ffffffffffffffffffffffffffffffffffffffff1673ffffffffffffffffffffffffffffffffffffffff16815260200190815260200160002060060160009054906101000a900473ffffffffffffffffffffffffffffffffffffffff16915050919050565b806000600260008373ffffffffffffffffffffffffffffffffffffffff1673ffffffffffffffffffffffffffffffffffffffff1681526020019081526020016000206000015403611392576040517f08c379a00000000000000000000000000000000000000000000000000000000081526004016113899061315e565b60405180910390fd5b338260007f000000000000000000000000000000000000000000000000000000000000000073ffffffffffffffffffffffffffffffffffffffff1663ebe618ff84846040518363ffffffff1660e01b81526004016113f1929190613762565b602060405180830381865afa15801561140e573d6000803e3d6000fd5b505050506040513d601f19601f820116820180604052508101906114329190613193565b11611472576040517f08c379a0000000000000000000000000000000000000000000000000000000008152600401611469906137fd565b60405180910390fd5b600360003373ffffffffffffffffffffffffffffffffffffffff1673ffffffffffffffffffffffffffffffffffffffff16815260200190815260200160002060008573ffffffffffffffffffffffffffffffffffffffff1673ffffffffffffffffffffffffffffffffffffffff16815260200190815260200160002060009054906101000a900460ff1615611631576000600360003373ffffffffffffffffffffffffffffffffffffffff1673ffffffffffffffffffffffffffffffffffffffff16815260200190815260200160002060008673ffffffffffffffffffffffffffffffffffffffff1673ffffffffffffffffffffffffffffffffffffffff16815260200190815260200160002060006101000a81548160ff0219169083151502179055506001600260008673ffffffffffffffffffffffffffffffffffffffff1673ffffffffffffffffffffffffffffffffffffffff16815260200190815260200160002060080160008282546115e99190613313565b925050819055507f0130ff0b47837190bd1305d64d338810a5ddabd794b2ea0dbb6df41de3535edc843360006040516116249392919061387e565b60405180910390a161175d565b6001600360003373ffffffffffffffffffffffffffffffffffffffff1673ffffffffffffffffffffffffffffffffffffffff16815260200190815260200160002060008673ffffffffffffffffffffffffffffffffffffffff1673ffffffffffffffffffffffffffffffffffffffff16815260200190815260200160002060006101000a81548160ff0219169083151502179055506001600260008673ffffffffffffffffffffffffffffffffffffffff1673ffffffffffffffffffffffffffffffffffffffff168152602001908152602001600020600801600082825461171991906138b5565b925050819055507f0130ff0b47837190bd1305d64d338810a5ddabd794b2ea0dbb6df41de3535edc843360016040516117549392919061387e565b60405180910390a15b50505050565b6000816000600260008373ffffffffffffffffffffffffffffffffffffffff1673ffffffffffffffffffffffffffffffffffffffff16815260200190815260200160002060000154036117eb576040517f08c379a00000000000000000000000000000000000000000000000000000000081526004016117e29061315e565b60405180910390fd5b600073ffffffffffffffffffffffffffffffffffffffff168473ffffffffffffffffffffffffffffffffffffffff160361185a576040517f08c379a000000000000000000000000000000000000000000000000000000000815260040161185190613935565b60405180910390fd5b7f000000000000000000000000000000000000000000000000000000000000000073ffffffffffffffffffffffffffffffffffffffff1663bb2061b285856040518363ffffffff1660e01b81526004016118b5929190613762565b602060405180830381865afa1580156118d2573d6000803e3d6000fd5b505050506040513d601f19601f820116820180604052508101906118f69190613981565b91505092915050565b6000600260008473ffffffffffffffffffffffffffffffffffffffff1673ffffffffffffffffffffffffffffffffffffffff1681526020019081526020016000206000015414611984576040517f08c379a000000000000000000000000000000000000000000000000000000000815260040161197b90613a20565b60405180910390fd5b600073ffffffffffffffffffffffffffffffffffffffff168273ffffffffffffffffffffffffffffffffffffffff16036119f3576040517f08c379a00000000000000000000000000000000000000000000000000000000081526004016119ea90613a8c565b60405180910390fd5b6040518061012001604052806001600054611a0e91906138b5565b81526020018581526020018481526020018373ffffffffffffffffffffffffffffffffffffffff1681526020016276a70042611a4a91906138b5565b81526020018281526020013373ffffffffffffffffffffffffffffffffffffffff168152602001600081526020016000815250600260008473ffffffffffffffffffffffffffffffffffffffff1673ffffffffffffffffffffffffffffffffffffffff168152602001908152602001600020600082015181600001556020820151816001019081611adb9190613582565b506040820151816002019081611af19190613582565b5060608201518160030160006101000a81548173ffffffffffffffffffffffffffffffffffffffff021916908373ffffffffffffffffffffffffffffffffffffffff1602179055506080820151816004015560a0820151816005015560c08201518160060160006101000a81548173ffffffffffffffffffffffffffffffffffffffff021916908373ffffffffffffffffffffffffffffffffffffffff16021790555060e0820151816007015561010082015181600801559050506004600260008473ffffffffffffffffffffffffffffffffffffffff1673ffffffffffffffffffffffffffffffffffffffff16815260200190815260200160002090806001815401808255809150506001900390600052602060002090600902016000909190919091506000820154816000015560018201816001019081611c349190613ac2565b5060028201816002019081611c499190613ac2565b506003820160009054906101000a900473ffffffffffffffffffffffffffffffffffffffff168160030160006101000a81548173ffffffffffffffffffffffffffffffffffffffff021916908373ffffffffffffffffffffffffffffffffffffffff16021790555060048201548160040155600582015481600501556006820160009054906101000a900473ffffffffffffffffffffffffffffffffffffffff168160060160006101000a81548173ffffffffffffffffffffffffffffffffffffffff021916908373ffffffffffffffffffffffffffffffffffffffff16021790555060078201548160070155600882015481600801555050600080815480929190611d5490613baa565b919050555060016000815480929190611d6c90613baa565b91905055507f58f73aafa87d9b04667754b00af7725ad377ed0c56a41f040c7b70edb6e618e3600260008473ffffffffffffffffffffffffffffffffffffffff1673ffffffffffffffffffffffffffffffffffffffff168152602001908152602001600020600101600260008573ffffffffffffffffffffffffffffffffffffffff1673ffffffffffffffffffffffffffffffffffffffff16815260200190815260200160002060020184600260008773ffffffffffffffffffffffffffffffffffffffff1673ffffffffffffffffffffffffffffffffffffffff16815260200190815260200160002060040154600260008873ffffffffffffffffffffffffffffffffffffffff1673ffffffffffffffffffffffffffffffffffffffff16815260200190815260200160002060050154600260008973ffffffffffffffffffffffffffffffffffffffff1673ffffffffffffffffffffffffffffffffffffffff16815260200190815260200160002060060160009054906101000a900473ffffffffffffffffffffffffffffffffffffffff16600260008a73ffffffffffffffffffffffffffffffffffffffff1673ffffffffffffffffffffffffffffffffffffffff16815260200190815260200160002060070154600260008b73ffffffffffffffffffffffffffffffffffffffff1673ffffffffffffffffffffffffffffffffffffffff16815260200190815260200160002060080154604051611f9a989796959493929190613bf2565b60405180910390a150505050565b806000600260008373ffffffffffffffffffffffffffffffffffffffff1673ffffffffffffffffffffffffffffffffffffffff168152602001908152602001600020600001540361202e576040517f08c379a00000000000000000000000000000000000000000000000000000000081526004016120259061315e565b60405180910390fd5b338260007f000000000000000000000000000000000000000000000000000000000000000073ffffffffffffffffffffffffffffffffffffffff1663ebe618ff84846040518363ffffffff1660e01b815260040161208d929190613762565b602060405180830381865afa1580156120aa573d6000803e3d6000fd5b505050506040513d601f19601f820116820180604052508101906120ce9190613193565b1161210e576040517f08c379a0000000000000000000000000000000000000000000000000000000008152600401612105906137fd565b60405180910390fd5b7f000000000000000000000000000000000000000000000000000000000000000073ffffffffffffffffffffffffffffffffffffffff16635e30b8a633866040518363ffffffff1660e01b8152600401612169929190613762565b600060405180830381600087803b15801561218357600080fd5b505af1158015612197573d6000803e3d6000fd5b505050506001600260008673ffffffffffffffffffffffffffffffffffffffff1673ffffffffffffffffffffffffffffffffffffffff16815260200190815260200160002060070160008282546121ee9190613313565b925050819055506001600260008673ffffffffffffffffffffffffffffffffffffffff1673ffffffffffffffffffffffffffffffffffffffff16815260200190815260200160002060080160008282546122489190613313565b925050819055507f9abdc7a8f75a6b2dced25deba1234cb7e899aa3bad5fbd80da48f6877bf986888433604051612280929190613762565b60405180910390a150505050565b6000816000600260008373ffffffffffffffffffffffffffffffffffffffff1673ffffffffffffffffffffffffffffffffffffffff1681526020019081526020016000206000015403612316576040517f08c379a000000000000000000000000000000000000000000000000000000000815260040161230d9061315e565b60405180910390fd5b838360007f000000000000000000000000000000000000000000000000000000000000000073ffffffffffffffffffffffffffffffffffffffff1663ebe618ff84846040518363ffffffff1660e01b8152600401612375929190613762565b602060405180830381865afa158015612392573d6000803e3d6000fd5b505050506040513d601f19601f820116820180604052508101906123b69190613193565b116123f6576040517f08c379a00000000000000000000000000000000000000000000000000000000081526004016123ed906137fd565b60405180910390fd5b600360008773ffffffffffffffffffffffffffffffffffffffff1673ffffffffffffffffffffffffffffffffffffffff16815260200190815260200160002060008673ffffffffffffffffffffffffffffffffffffffff1673ffffffffffffffffffffffffffffffffffffffff16815260200190815260200160002060009054906101000a900460ff16935050505092915050565b612493612b37565b816000600260008373ffffffffffffffffffffffffffffffffffffffff1673ffffffffffffffffffffffffffffffffffffffff1681526020019081526020016000206000015403612519576040517f08c379a00000000000000000000000000000000000000000000000000000000081526004016125109061315e565b60405180910390fd5b600260008473ffffffffffffffffffffffffffffffffffffffff1673ffffffffffffffffffffffffffffffffffffffff168152602001908152602001600020604051806101200160405290816000820154815260200160018201805461257e906133a5565b80601f01602080910402602001604051908101604052809291908181526020018280546125aa906133a5565b80156125f75780601f106125cc576101008083540402835291602001916125f7565b820191906000526020600020905b8154815290600101906020018083116125da57829003601f168201915b50505050508152602001600282018054612610906133a5565b80601f016020809104026020016040519081016040528092919081815260200182805461263c906133a5565b80156126895780601f1061265e57610100808354040283529160200191612689565b820191906000526020600020905b81548152906001019060200180831161266c57829003601f168201915b505050505081526020016003820160009054906101000a900473ffffffffffffffffffffffffffffffffffffffff1673ffffffffffffffffffffffffffffffffffffffff1673ffffffffffffffffffffffffffffffffffffffff16815260200160048201548152602001600582015481526020016006820160009054906101000a900473ffffffffffffffffffffffffffffffffffffffff1673ffffffffffffffffffffffffffffffffffffffff1673ffffffffffffffffffffffffffffffffffffffff16815260200160078201548152602001600882015481525050915050919050565b806000600260008373ffffffffffffffffffffffffffffffffffffffff1673ffffffffffffffffffffffffffffffffffffffff16815260200190815260200160002060000154036127f4576040517f08c379a00000000000000000000000000000000000000000000000000000000081526004016127eb9061315e565b60405180910390fd5b60003411612837576040517f08c379a000000000000000000000000000000000000000000000000000000000815260040161282e90613cca565b60405180910390fd5b60007f000000000000000000000000000000000000000000000000000000000000000073ffffffffffffffffffffffffffffffffffffffff1663ebe618ff33856040518363ffffffff1660e01b8152600401612894929190613762565b602060405180830381865afa1580156128b1573d6000803e3d6000fd5b505050506040513d601f19601f820116820180604052508101906128d59190613193565b90507f000000000000000000000000000000000000000000000000000000000000000073ffffffffffffffffffffffffffffffffffffffff166307db37e73433866040518463ffffffff1660e01b8152600401612933929190613762565b6000604051808303818588803b15801561294c57600080fd5b505af1158015612960573d6000803e3d6000fd5b505050505060008103612ab7576001600260008573ffffffffffffffffffffffffffffffffffffffff1673ffffffffffffffffffffffffffffffffffffffff16815260200190815260200160002060070160008282546129c091906138b5565b925050819055506001600260008573ffffffffffffffffffffffffffffffffffffffff1673ffffffffffffffffffffffffffffffffffffffff1681526020019081526020016000206008016000828254612a1a91906138b5565b925050819055506001600360003373ffffffffffffffffffffffffffffffffffffffff1673ffffffffffffffffffffffffffffffffffffffff16815260200190815260200160002060008573ffffffffffffffffffffffffffffffffffffffff1673ffffffffffffffffffffffffffffffffffffffff16815260200190815260200160002060006101000a81548160ff0219169083151502179055505b7f5f4784839bf94cfc8d222de61d8f42fdf916ae9ab3c45ce15362117cc1c9bf0a833334604051612aea93929190613cea565b60405180910390a1505050565b508054612b03906133a5565b6000825580601f10612b155750612b34565b601f016020900490600052602060002090810190612b339190612baf565b5b50565b604051806101200160405280600081526020016060815260200160608152602001600073ffffffffffffffffffffffffffffffffffffffff1681526020016000815260200160008152602001600073ffffffffffffffffffffffffffffffffffffffff16815260200160008152602001600081525090565b5b80821115612bc8576000816000905550600101612bb0565b5090565b6000604051905090565b600080fd5b600080fd5b600073ffffffffffffffffffffffffffffffffffffffff82169050919050565b6000612c0b82612be0565b9050919050565b612c1b81612c00565b8114612c2657600080fd5b50565b600081359050612c3881612c12565b92915050565b600060208284031215612c5457612c53612bd6565b5b6000612c6284828501612c29565b91505092915050565b6000819050919050565b612c7e81612c6b565b82525050565b6000602082019050612c996000830184612c75565b92915050565b60008060408385031215612cb657612cb5612bd6565b5b6000612cc485828601612c29565b9250506020612cd585828601612c29565b9150509250929050565b612ce881612c00565b82525050565b6000602082019050612d036000830184612cdf565b92915050565b60008115159050919050565b612d1e81612d09565b82525050565b6000602082019050612d396000830184612d15565b92915050565b600080fd5b600080fd5b6000601f19601f8301169050919050565b7f4e487b7100000000000000000000000000000000000000000000000000000000600052604160045260246000fd5b612d9282612d49565b810181811067ffffffffffffffff82111715612db157612db0612d5a565b5b80604052505050565b6000612dc4612bcc565b9050612dd08282612d89565b919050565b600067ffffffffffffffff821115612df057612def612d5a565b5b612df982612d49565b9050602081019050919050565b82818337600083830152505050565b6000612e28612e2384612dd5565b612dba565b905082815260208101848484011115612e4457612e43612d44565b5b612e4f848285612e06565b509392505050565b600082601f830112612e6c57612e6b612d3f565b5b8135612e7c848260208601612e15565b91505092915050565b612e8e81612c6b565b8114612e9957600080fd5b50565b600081359050612eab81612e85565b92915050565b60008060008060808587031215612ecb57612eca612bd6565b5b600085013567ffffffffffffffff811115612ee957612ee8612bdb565b5b612ef587828801612e57565b945050602085013567ffffffffffffffff811115612f1657612f15612bdb565b5b612f2287828801612e57565b9350506040612f3387828801612c29565b9250506060612f4487828801612e9c565b91505092959194509250565b612f5981612c6b565b82525050565b600081519050919050565b600082825260208201905092915050565b60005b83811015612f99578082015181840152602081019050612f7e565b60008484015250505050565b6000612fb082612f5f565b612fba8185612f6a565b9350612fca818560208601612f7b565b612fd381612d49565b840191505092915050565b612fe781612c00565b82525050565b6000610120830160008301516130066000860182612f50565b506020830151848203602086015261301e8282612fa5565b915050604083015184820360408601526130388282612fa5565b915050606083015161304d6060860182612fde565b5060808301516130606080860182612f50565b5060a083015161307360a0860182612f50565b5060c083015161308660c0860182612fde565b5060e083015161309960e0860182612f50565b506101008301516130ae610100860182612f50565b508091505092915050565b600060208201905081810360008301526130d38184612fed565b905092915050565b600082825260208201905092915050565b7f4e6f2070726f6a65637420657869737473207769746820676976656e2061646460008201527f7265737300000000000000000000000000000000000000000000000000000000602082015250565b60006131486024836130db565b9150613153826130ec565b604082019050919050565b600060208201905081810360008301526131778161313b565b9050919050565b60008151905061318d81612e85565b92915050565b6000602082840312156131a9576131a8612bd6565b5b60006131b78482850161317e565b91505092915050565b7f4f6e6c79204f776e6572206f66207468652050726f6a6563742063616e20636160008201527f6c6c207468697300000000000000000000000000000000000000000000000000602082015250565b600061321c6027836130db565b9150613227826131c0565b604082019050919050565b6000602082019050818103600083015261324b8161320f565b9050919050565b7f50726f6a6563742043616e27742062652072656d6f7665642e2046756e64732060008201527f61726520696e7665737465642062792070656f706c652e000000000000000000602082015250565b60006132ae6037836130db565b91506132b982613252565b604082019050919050565b600060208201905081810360008301526132dd816132a1565b9050919050565b7f4e487b7100000000000000000000000000000000000000000000000000000000600052601160045260246000fd5b600061331e82612c6b565b915061332983612c6b565b9250828203905081811115613341576133406132e4565b5b92915050565b7f4e487b7100000000000000000000000000000000000000000000000000000000600052603260045260246000fd5b7f4e487b7100000000000000000000000000000000000000000000000000000000600052602260045260246000fd5b600060028204905060018216806133bd57607f821691505b6020821081036133d0576133cf613376565b5b50919050565b60008190508160005260206000209050919050565b60006020601f8301049050919050565b600082821b905092915050565b6000600883026134387fffffffffffffffffffffffffffffffffffffffffffffffffffffffffffffffff826133fb565b61344286836133fb565b95508019841693508086168417925050509392505050565b6000819050919050565b600061347f61347a61347584612c6b565b61345a565b612c6b565b9050919050565b6000819050919050565b61349983613464565b6134ad6134a582613486565b848454613408565b825550505050565b600090565b6134c26134b5565b6134cd818484613490565b505050565b5b818110156134f1576134e66000826134ba565b6001810190506134d3565b5050565b601f82111561353657613507816133d6565b613510846133eb565b8101602085101561351f578190505b61353361352b856133eb565b8301826134d2565b50505b505050565b600082821c905092915050565b60006135596000198460080261353b565b1980831691505092915050565b60006135728383613548565b9150826002028217905092915050565b61358b82612f5f565b67ffffffffffffffff8111156135a4576135a3612d5a565b5b6135ae82546133a5565b6135b98282856134f5565b600060209050601f8311600181146135ec57600084156135da578287015190505b6135e48582613566565b86555061364c565b601f1984166135fa866133d6565b60005b82811015613622578489015182556001820191506020850194506020810190506135fd565b8683101561363f578489015161363b601f891682613548565b8355505b6001600288020188555050505b505050505050565b600061365f82612c6b565b915060008203613672576136716132e4565b5b600182039050919050565b6000815461368a816133a5565b61369481866130db565b945060018216600081146136af57600181146136c5576136f8565b60ff1983168652811515602002860193506136f8565b6136ce856133d6565b60005b838110156136f0578154818901526001820191506020810190506136d1565b808801955050505b50505092915050565b600060a082019050818103600083015261371b818861367d565b9050818103602083015261372f818761367d565b905061373e6040830186612cdf565b61374b6060830185612cdf565b6137586080830184612c75565b9695505050505050565b60006040820190506137776000830185612cdf565b6137846020830184612cdf565b9392505050565b7f596f752068617665206e6f7420636f6e747269627574656420746f207468697360008201527f2070726f6a656374000000000000000000000000000000000000000000000000602082015250565b60006137e76028836130db565b91506137f28261378b565b604082019050919050565b60006020820190508181036000830152613816816137da565b9050919050565b600060c0820190506138326000830189612cdf565b61383f6020830188612cdf565b61384c6040830187612c75565b6138596060830186612c75565b6138666080830185612c75565b61387360a0830184612c75565b979650505050505050565b60006060820190506138936000830186612cdf565b6138a06020830185612cdf565b6138ad6040830184612d15565b949350505050565b60006138c082612c6b565b91506138cb83612c6b565b92508282019050808211156138e3576138e26132e4565b5b92915050565b7f5a65726f20416464726573730000000000000000000000000000000000000000600082015250565b600061391f600c836130db565b915061392a826138e9565b602082019050919050565b6000602082019050818103600083015261394e81613912565b9050919050565b61395e81612d09565b811461396957600080fd5b50565b60008151905061397b81613955565b92915050565b60006020828403121561399757613996612bd6565b5b60006139a58482850161396c565b91505092915050565b7f4164647265737320616c7265616479206265696e67207573656420627920616e60008201527f6f746865722050726f6a65637400000000000000000000000000000000000000602082015250565b6000613a0a602d836130db565b9150613a15826139ae565b604082019050919050565b60006020820190508181036000830152613a39816139fd565b9050919050565b7f496e76616c696420616464726573730000000000000000000000000000000000600082015250565b6000613a76600f836130db565b9150613a8182613a40565b602082019050919050565b60006020820190508181036000830152613aa581613a69565b9050919050565b600081549050613abb816133a5565b9050919050565b818103613ad0575050613ba8565b613ad982613aac565b67ffffffffffffffff811115613af257613af1612d5a565b5b613afc82546133a5565b613b078282856134f5565b6000601f831160018114613b365760008415613b24578287015490505b613b2e8582613566565b865550613ba1565b601f198416613b44876133d6565b9650613b4f866133d6565b60005b82811015613b7757848901548255600182019150600185019450602081019050613b52565b86831015613b945784890154613b90601f891682613548565b8355505b6001600288020188555050505b5050505050505b565b6000613bb582612c6b565b91507fffffffffffffffffffffffffffffffffffffffffffffffffffffffffffffffff8203613be757613be66132e4565b5b600182019050919050565b6000610100820190508181036000830152613c0d818b61367d565b90508181036020830152613c21818a61367d565b9050613c306040830189612cdf565b613c3d6060830188612c75565b613c4a6080830187612c75565b613c5760a0830186612cdf565b613c6460c0830185612c75565b613c7160e0830184612c75565b9998505050505050505050565b7f416d6f756e742073686f756c642062652067726561746572207468616e203000600082015250565b6000613cb4601f836130db565b9150613cbf82613c7e565b602082019050919050565b60006020820190508181036000830152613ce381613ca7565b9050919050565b6000606082019050613cff6000830186612cdf565b613d0c6020830185612cdf565b613d196040830184612c75565b94935050505056fea2646970667358221220db10ca4acc1489ba15e643c1f214b0fd08e9727e6c68eb6fa178b804086c584d64736f6c63430008110033",
  "linkReferences": {},
  "deployedLinkReferences": {}
}