{
  "_format": "hh-sol-artifact-1",
  "contractName": "Project",
  "sourceName": "contracts/Project.sol",
  "abi": [
    {
      "inputs": [
        {
          "internalType": "address",
          "name": "_fundContractAddress",
          "type": "address"
        }
      ],
      "stateMutability": "nonpayable",
      "type": "constructor"
    },
    {
      "anonymous": false,
      "inputs": [
        {
          "indexed": false,
          "internalType": "address",
          "name": "_projectAddress",
          "type": "address"
        },
        {
          "indexed": false,
          "internalType": "address",
          "name": "_contributorAddress",
          "type": "address"
        },
        {
          "indexed": false,
          "internalType": "uint256",
          "name": "_amount",
          "type": "uint256"
        }
      ],
      "name": "contributionEvent",
      "type": "event"
    },
    {
      "anonymous": false,
      "inputs": [
        {
          "indexed": false,
          "internalType": "string",
          "name": "_name",
          "type": "string"
        },
        {
          "indexed": false,
          "internalType": "string",
          "name": "_description",
          "type": "string"
        },
        {
          "indexed": false,
          "internalType": "address",
          "name": "_projectAddress",
          "type": "address"
        },
        {
          "indexed": false,
          "internalType": "uint256",
          "name": "_releaseTime",
          "type": "uint256"
        },
        {
          "indexed": false,
          "internalType": "uint256",
          "name": "_target",
          "type": "uint256"
        },
        {
          "indexed": false,
          "internalType": "address",
          "name": "_owner",
          "type": "address"
        },
        {
          "indexed": false,
          "internalType": "uint256",
          "name": "_totalInvestors",
          "type": "uint256"
        },
        {
          "indexed": false,
          "internalType": "uint256",
          "name": "_votes",
          "type": "uint256"
        }
      ],
      "name": "projectCreated",
      "type": "event"
    },
    {
      "anonymous": false,
      "inputs": [
        {
          "indexed": false,
          "internalType": "string",
          "name": "_name",
          "type": "string"
        },
        {
          "indexed": false,
          "internalType": "string",
          "name": "_description",
          "type": "string"
        },
        {
          "indexed": false,
          "internalType": "address",
          "name": "_projectAddress",
          "type": "address"
        },
        {
          "indexed": false,
          "internalType": "address",
          "name": "_owner",
          "type": "address"
        },
        {
          "indexed": false,
          "internalType": "uint256",
          "name": "_target",
          "type": "uint256"
        }
      ],
      "name": "projectRemoved",
      "type": "event"
    },
    {
      "anonymous": false,
      "inputs": [
        {
          "indexed": false,
          "internalType": "address",
          "name": "_projectAddress",
          "type": "address"
        },
        {
          "indexed": false,
          "internalType": "address",
          "name": "_contrinutorAddress",
          "type": "address"
        }
      ],
      "name": "refundContributionEvent",
      "type": "event"
    },
    {
      "anonymous": false,
      "inputs": [
        {
          "indexed": false,
          "internalType": "address",
          "name": "_projectAddress",
          "type": "address"
        },
        {
          "indexed": false,
          "internalType": "address",
          "name": "_owner",
          "type": "address"
        },
        {
          "indexed": false,
          "internalType": "uint256",
          "name": "_target",
          "type": "uint256"
        },
        {
          "indexed": false,
          "internalType": "uint256",
          "name": "_releaseTime",
          "type": "uint256"
        },
        {
          "indexed": false,
          "internalType": "uint256",
          "name": "_votes",
          "type": "uint256"
        },
        {
          "indexed": false,
          "internalType": "uint256",
          "name": "_totalInvestors",
          "type": "uint256"
        }
      ],
      "name": "releaseFundsEvent",
      "type": "event"
    },
    {
      "anonymous": false,
      "inputs": [
        {
          "indexed": false,
          "internalType": "address",
          "name": "_projectAddress",
          "type": "address"
        },
        {
          "indexed": false,
          "internalType": "address",
          "name": "_contributorAddress",
          "type": "address"
        },
        {
          "indexed": false,
          "internalType": "bool",
          "name": "_toggle",
          "type": "bool"
        }
      ],
      "name": "voteToggle",
      "type": "event"
    },
    {
      "inputs": [
        {
          "internalType": "string",
          "name": "_name",
          "type": "string"
        },
        {
          "internalType": "string",
          "name": "_description",
          "type": "string"
        },
        {
          "internalType": "address",
          "name": "_address",
          "type": "address"
        },
        {
          "internalType": "uint256",
          "name": "_target",
          "type": "uint256"
        }
      ],
      "name": "addProject",
      "outputs": [],
      "stateMutability": "nonpayable",
      "type": "function"
    },
    {
      "inputs": [
        {
          "internalType": "address",
          "name": "_projectAddress",
          "type": "address"
        }
      ],
      "name": "contributeToProject",
      "outputs": [],
      "stateMutability": "payable",
      "type": "function"
    },
    {
      "inputs": [
        {
          "internalType": "address",
          "name": "_contributorAddress",
          "type": "address"
        },
        {
          "internalType": "address",
          "name": "_projectAddress",
          "type": "address"
        }
      ],
      "name": "getContribution",
      "outputs": [
        {
          "internalType": "uint256",
          "name": "",
          "type": "uint256"
        }
      ],
      "stateMutability": "view",
      "type": "function"
    },
    {
      "inputs": [
        {
          "internalType": "address",
          "name": "_address",
          "type": "address"
        }
      ],
      "name": "getOwnerofProject",
      "outputs": [
        {
          "internalType": "address",
          "name": "",
          "type": "address"
        }
      ],
      "stateMutability": "view",
      "type": "function"
    },
    {
      "inputs": [
        {
          "internalType": "address",
          "name": "_address",
          "type": "address"
        }
      ],
      "name": "getProject",
      "outputs": [
        {
          "components": [
            {
              "internalType": "uint256",
              "name": "projectId",
              "type": "uint256"
            },
            {
              "internalType": "string",
              "name": "name",
              "type": "string"
            },
            {
              "internalType": "string",
              "name": "description",
              "type": "string"
            },
            {
              "internalType": "address",
              "name": "projectAddress",
              "type": "address"
            },
            {
              "internalType": "uint256",
              "name": "releaseTime",
              "type": "uint256"
            },
            {
              "internalType": "uint256",
              "name": "target",
              "type": "uint256"
            },
            {
              "internalType": "address",
              "name": "owner",
              "type": "address"
            },
            {
              "internalType": "uint256",
              "name": "totalInvestors",
              "type": "uint256"
            },
            {
              "internalType": "uint256",
              "name": "votes",
              "type": "uint256"
            }
          ],
          "internalType": "struct Project.project",
          "name": "",
          "type": "tuple"
        }
      ],
      "stateMutability": "view",
      "type": "function"
    },
    {
      "inputs": [],
      "name": "getTotalNumberofProjects",
      "outputs": [
        {
          "internalType": "uint256",
          "name": "",
          "type": "uint256"
        }
      ],
      "stateMutability": "view",
      "type": "function"
    },
    {
      "inputs": [
        {
          "internalType": "address",
          "name": "_contributor",
          "type": "address"
        },
        {
          "internalType": "address",
          "name": "_projectAddress",
          "type": "address"
        }
      ],
      "name": "getVotingInfo",
      "outputs": [
        {
          "internalType": "bool",
          "name": "",
          "type": "bool"
        }
      ],
      "stateMutability": "view",
      "type": "function"
    },
    {
      "inputs": [
        {
          "internalType": "address",
          "name": "_projectAddress",
          "type": "address"
        }
      ],
      "name": "refundContribution",
      "outputs": [],
      "stateMutability": "nonpayable",
      "type": "function"
    },
    {
      "inputs": [
        {
          "internalType": "address",
          "name": "_projectAddress",
          "type": "address"
        }
      ],
      "name": "releaseFunds",
      "outputs": [],
      "stateMutability": "nonpayable",
      "type": "function"
    },
    {
      "inputs": [
        {
          "internalType": "address",
          "name": "_address",
          "type": "address"
        }
      ],
      "name": "removeProject",
      "outputs": [],
      "stateMutability": "nonpayable",
      "type": "function"
    },
    {
      "inputs": [
        {
          "internalType": "address",
          "name": "_projectAddress",
          "type": "address"
        }
      ],
      "name": "toggleVote",
      "outputs": [],
      "stateMutability": "nonpayable",
      "type": "function"
    }
  ],
  "bytecode": "0x60c06040523480156200001157600080fd5b506040516200395b3803806200395b833981810160405281019062000037919062000110565b3373ffffffffffffffffffffffffffffffffffffffff1660a08173ffffffffffffffffffffffffffffffffffffffff16815250508073ffffffffffffffffffffffffffffffffffffffff1660808173ffffffffffffffffffffffffffffffffffffffff16815250505062000142565b600080fd5b600073ffffffffffffffffffffffffffffffffffffffff82169050919050565b6000620000d882620000ab565b9050919050565b620000ea81620000cb565b8114620000f657600080fd5b50565b6000815190506200010a81620000df565b92915050565b600060208284031215620001295762000128620000a6565b5b60006200013984828501620000f9565b91505092915050565b60805160a0516137be6200019d60003960005050600081816108d9015281816109b501528181610bb3015281816110f201528181611bf201528181611cce01528181611eda015281816123f9015261249701526137be6000f3fe60806040526004361061009c5760003560e01c806370f477cd1161006457806370f477cd14610198578063a96aab58146101c1578063b9ceef22146101ea578063e4cb194114610213578063f987070514610250578063ff6f46341461028d5761009c565b80630c0ad299146100a1578063126eac43146100ca578063192e7a7b14610107578063252bcf9d14610130578063552078571461015b575b600080fd5b3480156100ad57600080fd5b506100c860048036038101906100c391906127fc565b6102a9565b005b3480156100d657600080fd5b506100f160048036038101906100ec9190612829565b61084b565b6040516100fe9190612882565b60405180910390f35b34801561011357600080fd5b5061012e600480360381019061012991906127fc565b610a5a565b005b34801561013c57600080fd5b50610145610f69565b6040516101529190612882565b60405180910390f35b34801561016757600080fd5b50610182600480360381019061017d91906127fc565b610f73565b60405161018f91906128ac565b60405180910390f35b3480156101a457600080fd5b506101bf60048036038101906101ba91906127fc565b611066565b005b3480156101cd57600080fd5b506101e860048036038101906101e39190612a39565b6114bd565b005b3480156101f657600080fd5b50610211600480360381019061020c91906127fc565b611b66565b005b34801561021f57600080fd5b5061023a60048036038101906102359190612829565b611e4c565b6040516102479190612af3565b60405180910390f35b34801561025c57600080fd5b50610277600480360381019061027291906127fc565b612049565b6040516102849190612c77565b60405180910390f35b6102a760048036038101906102a291906127fc565b61232c565b005b806000600260008373ffffffffffffffffffffffffffffffffffffffff1673ffffffffffffffffffffffffffffffffffffffff168152602001908152602001600020600001540361032f576040517f08c379a000000000000000000000000000000000000000000000000000000000815260040161032690612d1c565b60405180910390fd5b81600260008273ffffffffffffffffffffffffffffffffffffffff1673ffffffffffffffffffffffffffffffffffffffff16815260200190815260200160002060060160009054906101000a900473ffffffffffffffffffffffffffffffffffffffff1673ffffffffffffffffffffffffffffffffffffffff163373ffffffffffffffffffffffffffffffffffffffff1614610400576040517f08c379a00000000000000000000000000000000000000000000000000000000081526004016103f790612dae565b60405180910390fd5b60405180610120016040528060008152602001604051806020016040528060008152508152602001604051806020016040528060008152508152602001600073ffffffffffffffffffffffffffffffffffffffff1681526020016000815260200160008152602001600073ffffffffffffffffffffffffffffffffffffffff16815260200160008152602001600081525060046001600260008773ffffffffffffffffffffffffffffffffffffffff1673ffffffffffffffffffffffffffffffffffffffff168152602001908152602001600020600001546104e29190612dfd565b815481106104f3576104f2612e31565b5b9060005260206000209060090201600082015181600001556020820151816001019081610520919061306c565b506040820151816002019081610536919061306c565b5060608201518160030160006101000a81548173ffffffffffffffffffffffffffffffffffffffff021916908373ffffffffffffffffffffffffffffffffffffffff1602179055506080820151816004015560a0820151816005015560c08201518160060160006101000a81548173ffffffffffffffffffffffffffffffffffffffff021916908373ffffffffffffffffffffffffffffffffffffffff16021790555060e082015181600701556101008201518160080155905050600160008154809291906106049061313e565b91905055507f198bea8a0f7bf1066c35e74dcf01b4778c8785bf9a5b357320ce795d9d5ee2b9600260008573ffffffffffffffffffffffffffffffffffffffff1673ffffffffffffffffffffffffffffffffffffffff168152602001908152602001600020600101600260008673ffffffffffffffffffffffffffffffffffffffff1673ffffffffffffffffffffffffffffffffffffffff16815260200190815260200160002060020185600260008873ffffffffffffffffffffffffffffffffffffffff1673ffffffffffffffffffffffffffffffffffffffff16815260200190815260200160002060060160009054906101000a900473ffffffffffffffffffffffffffffffffffffffff16600260008973ffffffffffffffffffffffffffffffffffffffff1673ffffffffffffffffffffffffffffffffffffffff168152602001908152602001600020600501546040516107669594939291906131eb565b60405180910390a1600260008473ffffffffffffffffffffffffffffffffffffffff1673ffffffffffffffffffffffffffffffffffffffff1681526020019081526020016000206000808201600090556001820160006107c691906126b5565b6002820160006107d691906126b5565b6003820160006101000a81549073ffffffffffffffffffffffffffffffffffffffff0219169055600482016000905560058201600090556006820160006101000a81549073ffffffffffffffffffffffffffffffffffffffff0219169055600782016000905560088201600090555050505050565b6000816000600260008373ffffffffffffffffffffffffffffffffffffffff1673ffffffffffffffffffffffffffffffffffffffff16815260200190815260200160002060000154036108d3576040517f08c379a00000000000000000000000000000000000000000000000000000000081526004016108ca90612d1c565b60405180910390fd5b838360007f000000000000000000000000000000000000000000000000000000000000000073ffffffffffffffffffffffffffffffffffffffff1663ebe618ff84846040518363ffffffff1660e01b815260040161093292919061324c565b602060405180830381865afa15801561094f573d6000803e3d6000fd5b505050506040513d601f19601f82011682018060405250810190610973919061328a565b116109b3576040517f08c379a00000000000000000000000000000000000000000000000000000000081526004016109aa90613329565b60405180910390fd5b7f000000000000000000000000000000000000000000000000000000000000000073ffffffffffffffffffffffffffffffffffffffff1663ebe618ff87876040518363ffffffff1660e01b8152600401610a0e92919061324c565b602060405180830381865afa158015610a2b573d6000803e3d6000fd5b505050506040513d601f19601f82011682018060405250810190610a4f919061328a565b935050505092915050565b806000600260008373ffffffffffffffffffffffffffffffffffffffff1673ffffffffffffffffffffffffffffffffffffffff1681526020019081526020016000206000015403610ae0576040517f08c379a0000000000000000000000000000000000000000000000000000000008152600401610ad790612d1c565b60405180910390fd5b81600260008273ffffffffffffffffffffffffffffffffffffffff1673ffffffffffffffffffffffffffffffffffffffff16815260200190815260200160002060060160009054906101000a900473ffffffffffffffffffffffffffffffffffffffff1673ffffffffffffffffffffffffffffffffffffffff163373ffffffffffffffffffffffffffffffffffffffff1614610bb1576040517f08c379a0000000000000000000000000000000000000000000000000000000008152600401610ba890612dae565b60405180910390fd5b7f000000000000000000000000000000000000000000000000000000000000000073ffffffffffffffffffffffffffffffffffffffff16631a1c9af484600260008773ffffffffffffffffffffffffffffffffffffffff1673ffffffffffffffffffffffffffffffffffffffff16815260200190815260200160002060060160009054906101000a900473ffffffffffffffffffffffffffffffffffffffff16600260008873ffffffffffffffffffffffffffffffffffffffff1673ffffffffffffffffffffffffffffffffffffffff16815260200190815260200160002060050154600260008973ffffffffffffffffffffffffffffffffffffffff1673ffffffffffffffffffffffffffffffffffffffff16815260200190815260200160002060040154600260008a73ffffffffffffffffffffffffffffffffffffffff1673ffffffffffffffffffffffffffffffffffffffff16815260200190815260200160002060080154600260008b73ffffffffffffffffffffffffffffffffffffffff1673ffffffffffffffffffffffffffffffffffffffff168152602001908152602001600020600701546040518763ffffffff1660e01b8152600401610d7e96959493929190613349565b600060405180830381600087803b158015610d9857600080fd5b505af1158015610dac573d6000803e3d6000fd5b505050507f0b1b6d870cbb778cbdd728ed661bb6eda9086412e4a8554071c7947939e0e38483600260008673ffffffffffffffffffffffffffffffffffffffff1673ffffffffffffffffffffffffffffffffffffffff16815260200190815260200160002060060160009054906101000a900473ffffffffffffffffffffffffffffffffffffffff16600260008773ffffffffffffffffffffffffffffffffffffffff1673ffffffffffffffffffffffffffffffffffffffff16815260200190815260200160002060050154600260008873ffffffffffffffffffffffffffffffffffffffff1673ffffffffffffffffffffffffffffffffffffffff16815260200190815260200160002060040154600260008973ffffffffffffffffffffffffffffffffffffffff1673ffffffffffffffffffffffffffffffffffffffff16815260200190815260200160002060080154600260008a73ffffffffffffffffffffffffffffffffffffffff1673ffffffffffffffffffffffffffffffffffffffff16815260200190815260200160002060070154604051610f5396959493929190613349565b60405180910390a1610f64836102a9565b505050565b6000600154905090565b6000816000600260008373ffffffffffffffffffffffffffffffffffffffff1673ffffffffffffffffffffffffffffffffffffffff1681526020019081526020016000206000015403610ffb576040517f08c379a0000000000000000000000000000000000000000000000000000000008152600401610ff290612d1c565b60405180910390fd5b600260008473ffffffffffffffffffffffffffffffffffffffff1673ffffffffffffffffffffffffffffffffffffffff16815260200190815260200160002060060160009054906101000a900473ffffffffffffffffffffffffffffffffffffffff16915050919050565b806000600260008373ffffffffffffffffffffffffffffffffffffffff1673ffffffffffffffffffffffffffffffffffffffff16815260200190815260200160002060000154036110ec576040517f08c379a00000000000000000000000000000000000000000000000000000000081526004016110e390612d1c565b60405180910390fd5b338260007f000000000000000000000000000000000000000000000000000000000000000073ffffffffffffffffffffffffffffffffffffffff1663ebe618ff84846040518363ffffffff1660e01b815260040161114b92919061324c565b602060405180830381865afa158015611168573d6000803e3d6000fd5b505050506040513d601f19601f8201168201806040525081019061118c919061328a565b116111cc576040517f08c379a00000000000000000000000000000000000000000000000000000000081526004016111c390613329565b60405180910390fd5b600360003373ffffffffffffffffffffffffffffffffffffffff1673ffffffffffffffffffffffffffffffffffffffff16815260200190815260200160002060008573ffffffffffffffffffffffffffffffffffffffff1673ffffffffffffffffffffffffffffffffffffffff16815260200190815260200160002060009054906101000a900460ff161561138b576000600360003373ffffffffffffffffffffffffffffffffffffffff1673ffffffffffffffffffffffffffffffffffffffff16815260200190815260200160002060008673ffffffffffffffffffffffffffffffffffffffff1673ffffffffffffffffffffffffffffffffffffffff16815260200190815260200160002060006101000a81548160ff0219169083151502179055506001600260008673ffffffffffffffffffffffffffffffffffffffff1673ffffffffffffffffffffffffffffffffffffffff16815260200190815260200160002060080160008282546113439190612dfd565b925050819055507f0130ff0b47837190bd1305d64d338810a5ddabd794b2ea0dbb6df41de3535edc8433600060405161137e939291906133aa565b60405180910390a16114b7565b6001600360003373ffffffffffffffffffffffffffffffffffffffff1673ffffffffffffffffffffffffffffffffffffffff16815260200190815260200160002060008673ffffffffffffffffffffffffffffffffffffffff1673ffffffffffffffffffffffffffffffffffffffff16815260200190815260200160002060006101000a81548160ff0219169083151502179055506001600260008673ffffffffffffffffffffffffffffffffffffffff1673ffffffffffffffffffffffffffffffffffffffff168152602001908152602001600020600801600082825461147391906133e1565b925050819055507f0130ff0b47837190bd1305d64d338810a5ddabd794b2ea0dbb6df41de3535edc843360016040516114ae939291906133aa565b60405180910390a15b50505050565b6000600260008473ffffffffffffffffffffffffffffffffffffffff1673ffffffffffffffffffffffffffffffffffffffff1681526020019081526020016000206000015414611542576040517f08c379a000000000000000000000000000000000000000000000000000000000815260040161153990613487565b60405180910390fd5b600073ffffffffffffffffffffffffffffffffffffffff168273ffffffffffffffffffffffffffffffffffffffff16036115b1576040517f08c379a00000000000000000000000000000000000000000000000000000000081526004016115a8906134f3565b60405180910390fd5b60405180610120016040528060016000546115cc91906133e1565b81526020018581526020018481526020018373ffffffffffffffffffffffffffffffffffffffff1681526020016276a7004261160891906133e1565b81526020018281526020013373ffffffffffffffffffffffffffffffffffffffff168152602001600081526020016000815250600260008473ffffffffffffffffffffffffffffffffffffffff1673ffffffffffffffffffffffffffffffffffffffff168152602001908152602001600020600082015181600001556020820151816001019081611699919061306c565b5060408201518160020190816116af919061306c565b5060608201518160030160006101000a81548173ffffffffffffffffffffffffffffffffffffffff021916908373ffffffffffffffffffffffffffffffffffffffff1602179055506080820151816004015560a0820151816005015560c08201518160060160006101000a81548173ffffffffffffffffffffffffffffffffffffffff021916908373ffffffffffffffffffffffffffffffffffffffff16021790555060e0820151816007015561010082015181600801559050506004600260008473ffffffffffffffffffffffffffffffffffffffff1673ffffffffffffffffffffffffffffffffffffffff168152602001908152602001600020908060018154018082558091505060019003906000526020600020906009020160009091909190915060008201548160000155600182018160010190816117f29190613529565b50600282018160020190816118079190613529565b506003820160009054906101000a900473ffffffffffffffffffffffffffffffffffffffff168160030160006101000a81548173ffffffffffffffffffffffffffffffffffffffff021916908373ffffffffffffffffffffffffffffffffffffffff16021790555060048201548160040155600582015481600501556006820160009054906101000a900473ffffffffffffffffffffffffffffffffffffffff168160060160006101000a81548173ffffffffffffffffffffffffffffffffffffffff021916908373ffffffffffffffffffffffffffffffffffffffff1602179055506007820154816007015560088201548160080155505060008081548092919061191290613611565b91905055506001600081548092919061192a90613611565b91905055507f58f73aafa87d9b04667754b00af7725ad377ed0c56a41f040c7b70edb6e618e3600260008473ffffffffffffffffffffffffffffffffffffffff1673ffffffffffffffffffffffffffffffffffffffff168152602001908152602001600020600101600260008573ffffffffffffffffffffffffffffffffffffffff1673ffffffffffffffffffffffffffffffffffffffff16815260200190815260200160002060020184600260008773ffffffffffffffffffffffffffffffffffffffff1673ffffffffffffffffffffffffffffffffffffffff16815260200190815260200160002060040154600260008873ffffffffffffffffffffffffffffffffffffffff1673ffffffffffffffffffffffffffffffffffffffff16815260200190815260200160002060050154600260008973ffffffffffffffffffffffffffffffffffffffff1673ffffffffffffffffffffffffffffffffffffffff16815260200190815260200160002060060160009054906101000a900473ffffffffffffffffffffffffffffffffffffffff16600260008a73ffffffffffffffffffffffffffffffffffffffff1673ffffffffffffffffffffffffffffffffffffffff16815260200190815260200160002060070154600260008b73ffffffffffffffffffffffffffffffffffffffff1673ffffffffffffffffffffffffffffffffffffffff16815260200190815260200160002060080154604051611b58989796959493929190613659565b60405180910390a150505050565b806000600260008373ffffffffffffffffffffffffffffffffffffffff1673ffffffffffffffffffffffffffffffffffffffff1681526020019081526020016000206000015403611bec576040517f08c379a0000000000000000000000000000000000000000000000000000000008152600401611be390612d1c565b60405180910390fd5b338260007f000000000000000000000000000000000000000000000000000000000000000073ffffffffffffffffffffffffffffffffffffffff1663ebe618ff84846040518363ffffffff1660e01b8152600401611c4b92919061324c565b602060405180830381865afa158015611c68573d6000803e3d6000fd5b505050506040513d601f19601f82011682018060405250810190611c8c919061328a565b11611ccc576040517f08c379a0000000000000000000000000000000000000000000000000000000008152600401611cc390613329565b60405180910390fd5b7f000000000000000000000000000000000000000000000000000000000000000073ffffffffffffffffffffffffffffffffffffffff16635e30b8a633866040518363ffffffff1660e01b8152600401611d2792919061324c565b600060405180830381600087803b158015611d4157600080fd5b505af1158015611d55573d6000803e3d6000fd5b505050506001600260008673ffffffffffffffffffffffffffffffffffffffff1673ffffffffffffffffffffffffffffffffffffffff1681526020019081526020016000206007016000828254611dac9190612dfd565b925050819055506001600260008673ffffffffffffffffffffffffffffffffffffffff1673ffffffffffffffffffffffffffffffffffffffff1681526020019081526020016000206008016000828254611e069190612dfd565b925050819055507f9abdc7a8f75a6b2dced25deba1234cb7e899aa3bad5fbd80da48f6877bf986888433604051611e3e92919061324c565b60405180910390a150505050565b6000816000600260008373ffffffffffffffffffffffffffffffffffffffff1673ffffffffffffffffffffffffffffffffffffffff1681526020019081526020016000206000015403611ed4576040517f08c379a0000000000000000000000000000000000000000000000000000000008152600401611ecb90612d1c565b60405180910390fd5b838360007f000000000000000000000000000000000000000000000000000000000000000073ffffffffffffffffffffffffffffffffffffffff1663ebe618ff84846040518363ffffffff1660e01b8152600401611f3392919061324c565b602060405180830381865afa158015611f50573d6000803e3d6000fd5b505050506040513d601f19601f82011682018060405250810190611f74919061328a565b11611fb4576040517f08c379a0000000000000000000000000000000000000000000000000000000008152600401611fab90613329565b60405180910390fd5b600360008773ffffffffffffffffffffffffffffffffffffffff1673ffffffffffffffffffffffffffffffffffffffff16815260200190815260200160002060008673ffffffffffffffffffffffffffffffffffffffff1673ffffffffffffffffffffffffffffffffffffffff16815260200190815260200160002060009054906101000a900460ff16935050505092915050565b6120516126f5565b816000600260008373ffffffffffffffffffffffffffffffffffffffff1673ffffffffffffffffffffffffffffffffffffffff16815260200190815260200160002060000154036120d7576040517f08c379a00000000000000000000000000000000000000000000000000000000081526004016120ce90612d1c565b60405180910390fd5b600260008473ffffffffffffffffffffffffffffffffffffffff1673ffffffffffffffffffffffffffffffffffffffff168152602001908152602001600020604051806101200160405290816000820154815260200160018201805461213c90612e8f565b80601f016020809104026020016040519081016040528092919081815260200182805461216890612e8f565b80156121b55780601f1061218a576101008083540402835291602001916121b5565b820191906000526020600020905b81548152906001019060200180831161219857829003601f168201915b505050505081526020016002820180546121ce90612e8f565b80601f01602080910402602001604051908101604052809291908181526020018280546121fa90612e8f565b80156122475780601f1061221c57610100808354040283529160200191612247565b820191906000526020600020905b81548152906001019060200180831161222a57829003601f168201915b505050505081526020016003820160009054906101000a900473ffffffffffffffffffffffffffffffffffffffff1673ffffffffffffffffffffffffffffffffffffffff1673ffffffffffffffffffffffffffffffffffffffff16815260200160048201548152602001600582015481526020016006820160009054906101000a900473ffffffffffffffffffffffffffffffffffffffff1673ffffffffffffffffffffffffffffffffffffffff1673ffffffffffffffffffffffffffffffffffffffff16815260200160078201548152602001600882015481525050915050919050565b806000600260008373ffffffffffffffffffffffffffffffffffffffff1673ffffffffffffffffffffffffffffffffffffffff16815260200190815260200160002060000154036123b2576040517f08c379a00000000000000000000000000000000000000000000000000000000081526004016123a990612d1c565b60405180910390fd5b600034116123f5576040517f08c379a00000000000000000000000000000000000000000000000000000000081526004016123ec90613731565b60405180910390fd5b60007f000000000000000000000000000000000000000000000000000000000000000073ffffffffffffffffffffffffffffffffffffffff1663ebe618ff33856040518363ffffffff1660e01b815260040161245292919061324c565b602060405180830381865afa15801561246f573d6000803e3d6000fd5b505050506040513d601f19601f82011682018060405250810190612493919061328a565b90507f000000000000000000000000000000000000000000000000000000000000000073ffffffffffffffffffffffffffffffffffffffff166307db37e73433866040518463ffffffff1660e01b81526004016124f192919061324c565b6000604051808303818588803b15801561250a57600080fd5b505af115801561251e573d6000803e3d6000fd5b505050505060008103612675576001600260008573ffffffffffffffffffffffffffffffffffffffff1673ffffffffffffffffffffffffffffffffffffffff168152602001908152602001600020600701600082825461257e91906133e1565b925050819055506001600260008573ffffffffffffffffffffffffffffffffffffffff1673ffffffffffffffffffffffffffffffffffffffff16815260200190815260200160002060080160008282546125d891906133e1565b925050819055506001600360003373ffffffffffffffffffffffffffffffffffffffff1673ffffffffffffffffffffffffffffffffffffffff16815260200190815260200160002060008573ffffffffffffffffffffffffffffffffffffffff1673ffffffffffffffffffffffffffffffffffffffff16815260200190815260200160002060006101000a81548160ff0219169083151502179055505b7f5f4784839bf94cfc8d222de61d8f42fdf916ae9ab3c45ce15362117cc1c9bf0a8333346040516126a893929190613751565b60405180910390a1505050565b5080546126c190612e8f565b6000825580601f106126d357506126f2565b601f0160209004906000526020600020908101906126f1919061276d565b5b50565b604051806101200160405280600081526020016060815260200160608152602001600073ffffffffffffffffffffffffffffffffffffffff1681526020016000815260200160008152602001600073ffffffffffffffffffffffffffffffffffffffff16815260200160008152602001600081525090565b5b8082111561278657600081600090555060010161276e565b5090565b6000604051905090565b600080fd5b600080fd5b600073ffffffffffffffffffffffffffffffffffffffff82169050919050565b60006127c98261279e565b9050919050565b6127d9816127be565b81146127e457600080fd5b50565b6000813590506127f6816127d0565b92915050565b60006020828403121561281257612811612794565b5b6000612820848285016127e7565b91505092915050565b600080604083850312156128405761283f612794565b5b600061284e858286016127e7565b925050602061285f858286016127e7565b9150509250929050565b6000819050919050565b61287c81612869565b82525050565b60006020820190506128976000830184612873565b92915050565b6128a6816127be565b82525050565b60006020820190506128c1600083018461289d565b92915050565b600080fd5b600080fd5b6000601f19601f8301169050919050565b7f4e487b7100000000000000000000000000000000000000000000000000000000600052604160045260246000fd5b61291a826128d1565b810181811067ffffffffffffffff82111715612939576129386128e2565b5b80604052505050565b600061294c61278a565b90506129588282612911565b919050565b600067ffffffffffffffff821115612978576129776128e2565b5b612981826128d1565b9050602081019050919050565b82818337600083830152505050565b60006129b06129ab8461295d565b612942565b9050828152602081018484840111156129cc576129cb6128cc565b5b6129d784828561298e565b509392505050565b600082601f8301126129f4576129f36128c7565b5b8135612a0484826020860161299d565b91505092915050565b612a1681612869565b8114612a2157600080fd5b50565b600081359050612a3381612a0d565b92915050565b60008060008060808587031215612a5357612a52612794565b5b600085013567ffffffffffffffff811115612a7157612a70612799565b5b612a7d878288016129df565b945050602085013567ffffffffffffffff811115612a9e57612a9d612799565b5b612aaa878288016129df565b9350506040612abb878288016127e7565b9250506060612acc87828801612a24565b91505092959194509250565b60008115159050919050565b612aed81612ad8565b82525050565b6000602082019050612b086000830184612ae4565b92915050565b612b1781612869565b82525050565b600081519050919050565b600082825260208201905092915050565b60005b83811015612b57578082015181840152602081019050612b3c565b60008484015250505050565b6000612b6e82612b1d565b612b788185612b28565b9350612b88818560208601612b39565b612b91816128d1565b840191505092915050565b612ba5816127be565b82525050565b600061012083016000830151612bc46000860182612b0e565b5060208301518482036020860152612bdc8282612b63565b91505060408301518482036040860152612bf68282612b63565b9150506060830151612c0b6060860182612b9c565b506080830151612c1e6080860182612b0e565b5060a0830151612c3160a0860182612b0e565b5060c0830151612c4460c0860182612b9c565b5060e0830151612c5760e0860182612b0e565b50610100830151612c6c610100860182612b0e565b508091505092915050565b60006020820190508181036000830152612c918184612bab565b905092915050565b600082825260208201905092915050565b7f4e6f2070726f6a65637420657869737473207769746820676976656e2061646460008201527f7265737300000000000000000000000000000000000000000000000000000000602082015250565b6000612d06602483612c99565b9150612d1182612caa565b604082019050919050565b60006020820190508181036000830152612d3581612cf9565b9050919050565b7f4f6e6c79204f776e6572206f66207468652050726f6a6563742063616e20636160008201527f6c6c207468697300000000000000000000000000000000000000000000000000602082015250565b6000612d98602783612c99565b9150612da382612d3c565b604082019050919050565b60006020820190508181036000830152612dc781612d8b565b9050919050565b7f4e487b7100000000000000000000000000000000000000000000000000000000600052601160045260246000fd5b6000612e0882612869565b9150612e1383612869565b9250828203905081811115612e2b57612e2a612dce565b5b92915050565b7f4e487b7100000000000000000000000000000000000000000000000000000000600052603260045260246000fd5b7f4e487b7100000000000000000000000000000000000000000000000000000000600052602260045260246000fd5b60006002820490506001821680612ea757607f821691505b602082108103612eba57612eb9612e60565b5b50919050565b60008190508160005260206000209050919050565b60006020601f8301049050919050565b600082821b905092915050565b600060088302612f227fffffffffffffffffffffffffffffffffffffffffffffffffffffffffffffffff82612ee5565b612f2c8683612ee5565b95508019841693508086168417925050509392505050565b6000819050919050565b6000612f69612f64612f5f84612869565b612f44565b612869565b9050919050565b6000819050919050565b612f8383612f4e565b612f97612f8f82612f70565b848454612ef2565b825550505050565b600090565b612fac612f9f565b612fb7818484612f7a565b505050565b5b81811015612fdb57612fd0600082612fa4565b600181019050612fbd565b5050565b601f82111561302057612ff181612ec0565b612ffa84612ed5565b81016020851015613009578190505b61301d61301585612ed5565b830182612fbc565b50505b505050565b600082821c905092915050565b600061304360001984600802613025565b1980831691505092915050565b600061305c8383613032565b9150826002028217905092915050565b61307582612b1d565b67ffffffffffffffff81111561308e5761308d6128e2565b5b6130988254612e8f565b6130a3828285612fdf565b600060209050601f8311600181146130d657600084156130c4578287015190505b6130ce8582613050565b865550613136565b601f1984166130e486612ec0565b60005b8281101561310c578489015182556001820191506020850194506020810190506130e7565b868310156131295784890151613125601f891682613032565b8355505b6001600288020188555050505b505050505050565b600061314982612869565b91506000820361315c5761315b612dce565b5b600182039050919050565b6000815461317481612e8f565b61317e8186612c99565b9450600182166000811461319957600181146131af576131e2565b60ff1983168652811515602002860193506131e2565b6131b885612ec0565b60005b838110156131da578154818901526001820191506020810190506131bb565b808801955050505b50505092915050565b600060a08201905081810360008301526132058188613167565b905081810360208301526132198187613167565b9050613228604083018661289d565b613235606083018561289d565b6132426080830184612873565b9695505050505050565b6000604082019050613261600083018561289d565b61326e602083018461289d565b9392505050565b60008151905061328481612a0d565b92915050565b6000602082840312156132a05761329f612794565b5b60006132ae84828501613275565b91505092915050565b7f596f752068617665206e6f7420636f6e747269627574656420746f207468697360008201527f2070726f6a656374000000000000000000000000000000000000000000000000602082015250565b6000613313602883612c99565b915061331e826132b7565b604082019050919050565b6000602082019050818103600083015261334281613306565b9050919050565b600060c08201905061335e600083018961289d565b61336b602083018861289d565b6133786040830187612873565b6133856060830186612873565b6133926080830185612873565b61339f60a0830184612873565b979650505050505050565b60006060820190506133bf600083018661289d565b6133cc602083018561289d565b6133d96040830184612ae4565b949350505050565b60006133ec82612869565b91506133f783612869565b925082820190508082111561340f5761340e612dce565b5b92915050565b7f4164647265737320616c7265616479206265696e67207573656420627920616e60008201527f6f746865722050726f6a65637400000000000000000000000000000000000000602082015250565b6000613471602d83612c99565b915061347c82613415565b604082019050919050565b600060208201905081810360008301526134a081613464565b9050919050565b7f496e76616c696420616464726573730000000000000000000000000000000000600082015250565b60006134dd600f83612c99565b91506134e8826134a7565b602082019050919050565b6000602082019050818103600083015261350c816134d0565b9050919050565b60008154905061352281612e8f565b9050919050565b81810361353757505061360f565b61354082613513565b67ffffffffffffffff811115613559576135586128e2565b5b6135638254612e8f565b61356e828285612fdf565b6000601f83116001811461359d576000841561358b578287015490505b6135958582613050565b865550613608565b601f1984166135ab87612ec0565b96506135b686612ec0565b60005b828110156135de578489015482556001820191506001850194506020810190506135b9565b868310156135fb57848901546135f7601f891682613032565b8355505b6001600288020188555050505b5050505050505b565b600061361c82612869565b91507fffffffffffffffffffffffffffffffffffffffffffffffffffffffffffffffff820361364e5761364d612dce565b5b600182019050919050565b6000610100820190508181036000830152613674818b613167565b90508181036020830152613688818a613167565b9050613697604083018961289d565b6136a46060830188612873565b6136b16080830187612873565b6136be60a083018661289d565b6136cb60c0830185612873565b6136d860e0830184612873565b9998505050505050505050565b7f416d6f756e742073686f756c642062652067726561746572207468616e203000600082015250565b600061371b601f83612c99565b9150613726826136e5565b602082019050919050565b6000602082019050818103600083015261374a8161370e565b9050919050565b6000606082019050613766600083018661289d565b613773602083018561289d565b6137806040830184612873565b94935050505056fea2646970667358221220aa56e45b0c431fc45825e9dd79c0154638697047508d0af27fef15ee0527881d64736f6c63430008110033",
  "linkReferences": {},
  "deployedLinkReferences": {}
}